{
  "_format": "hh-sol-artifact-1",
  "contractName": "Coupon",
  "sourceName": "contracts/main/Coupon.sol",
  "abi": [
    {
      "inputs": [],
      "stateMutability": "nonpayable",
      "type": "constructor"
    },
    {
      "inputs": [
        {
          "internalType": "uint256",
          "name": "_value",
          "type": "uint256"
        },
        {
          "internalType": "uint256",
          "name": "_offer",
          "type": "uint256"
        }
      ],
      "name": "addCoupon",
      "outputs": [],
      "stateMutability": "nonpayable",
      "type": "function"
    },
    {
      "inputs": [
        {
          "internalType": "address",
          "name": "contributor",
          "type": "address"
        },
        {
          "internalType": "uint256",
          "name": "totalContribution",
          "type": "uint256"
        }
      ],
      "name": "checkAndAssignCoupon",
      "outputs": [],
      "stateMutability": "nonpayable",
      "type": "function"
    },
    {
      "inputs": [
        {
          "internalType": "uint256",
          "name": "",
          "type": "uint256"
        }
      ],
      "name": "couponValue",
      "outputs": [
        {
          "internalType": "uint256",
          "name": "",
          "type": "uint256"
        }
      ],
      "stateMutability": "view",
      "type": "function"
    },
    {
      "inputs": [
        {
          "internalType": "address",
          "name": "",
          "type": "address"
        },
        {
          "internalType": "uint256",
          "name": "",
          "type": "uint256"
        }
      ],
      "name": "coupons",
      "outputs": [
        {
          "internalType": "bytes32",
          "name": "id",
          "type": "bytes32"
        },
        {
          "internalType": "uint256",
          "name": "value",
          "type": "uint256"
        },
        {
          "internalType": "uint256",
          "name": "timestamp",
          "type": "uint256"
        },
        {
          "internalType": "bool",
          "name": "used",
          "type": "bool"
        },
        {
          "internalType": "bool",
          "name": "withdrawn",
          "type": "bool"
        }
      ],
      "stateMutability": "view",
      "type": "function"
    },
    {
      "inputs": [
        {
          "internalType": "address",
          "name": "contributor",
          "type": "address"
        }
      ],
      "name": "getMyCoupons",
      "outputs": [
        {
          "components": [
            {
              "internalType": "bytes32",
              "name": "id",
              "type": "bytes32"
            },
            {
              "internalType": "uint256",
              "name": "value",
              "type": "uint256"
            },
            {
              "internalType": "uint256",
              "name": "timestamp",
              "type": "uint256"
            },
            {
              "internalType": "bool",
              "name": "used",
              "type": "bool"
            },
            {
              "internalType": "bool",
              "name": "withdrawn",
              "type": "bool"
            }
          ],
          "internalType": "struct ICoupon.Coupon[]",
          "name": "",
          "type": "tuple[]"
        }
      ],
      "stateMutability": "view",
      "type": "function"
    },
    {
      "inputs": [],
      "name": "getThresholds",
      "outputs": [
        {
          "internalType": "uint256[]",
          "name": "",
          "type": "uint256[]"
        }
      ],
      "stateMutability": "view",
      "type": "function"
    },
    {
      "inputs": [
        {
          "internalType": "address",
          "name": "contributor",
          "type": "address"
        },
        {
          "internalType": "bytes32",
          "name": "couponId",
          "type": "bytes32"
        }
      ],
      "name": "isCouponValid",
      "outputs": [
        {
          "internalType": "bool",
          "name": "",
          "type": "bool"
        }
      ],
      "stateMutability": "view",
      "type": "function"
    },
    {
      "inputs": [
        {
          "internalType": "address",
          "name": "contributor",
          "type": "address"
        },
        {
          "internalType": "bytes32",
          "name": "couponId",
          "type": "bytes32"
        }
      ],
      "name": "isCouponValidAndGetAmount",
      "outputs": [
        {
          "internalType": "bool",
          "name": "",
          "type": "bool"
        },
        {
          "internalType": "uint256",
          "name": "",
          "type": "uint256"
        }
      ],
      "stateMutability": "view",
      "type": "function"
    },
    {
      "inputs": [
        {
          "internalType": "address",
          "name": "contributor",
          "type": "address"
        },
        {
          "internalType": "bytes32",
          "name": "couponId",
          "type": "bytes32"
        }
      ],
      "name": "markCouponAsWithdrawn",
      "outputs": [],
      "stateMutability": "nonpayable",
      "type": "function"
    },
    {
      "inputs": [
        {
          "internalType": "uint256",
          "name": "",
          "type": "uint256"
        }
      ],
      "name": "thresholds",
      "outputs": [
        {
          "internalType": "uint256",
          "name": "",
          "type": "uint256"
        }
      ],
      "stateMutability": "view",
      "type": "function"
    },
    {
      "inputs": [
        {
          "internalType": "address",
          "name": "originalOwner",
          "type": "address"
        },
        {
          "internalType": "address",
          "name": "to",
          "type": "address"
        },
        {
          "internalType": "bytes32",
          "name": "couponId",
          "type": "bytes32"
        }
      ],
      "name": "transferCoupon",
      "outputs": [],
      "stateMutability": "nonpayable",
      "type": "function"
    }
  ],
  "bytecode": "0x60806040523480156200001157600080fd5b50336000806101000a81548173ffffffffffffffffffffffffffffffffffffffff021916908373ffffffffffffffffffffffffffffffffffffffff16021790555062000070655af3107a4000652d79883d2000620000b660201b60201c565b6200009066038d7ea4c680006601c6bf52634000620000b660201b60201c565b620000b0662386f26fc100006611c37937e08000620000b660201b60201c565b62000252565b60008054906101000a900473ffffffffffffffffffffffffffffffffffffffff1673ffffffffffffffffffffffffffffffffffffffff163373ffffffffffffffffffffffffffffffffffffffff161462000147576040517f08c379a00000000000000000000000000000000000000000000000000000000081526004016200013e9062000230565b60405180910390fd5b60006001600084815260200190815260200160002054036200018d5760038290806001815401808255809150506001900390600052602060002001600090919091909150555b8060016000848152602001908152602001600020819055505050565b600082825260208201905092915050565b7f4f6e6c792061646d696e2063616e2063616c6c20746869732066756e6374696f60008201527f6e00000000000000000000000000000000000000000000000000000000000000602082015250565b600062000218602183620001a9565b91506200022582620001ba565b604082019050919050565b600060208201905081810360008301526200024b8162000209565b9050919050565b6119ce80620002626000396000f3fe608060405234801561001057600080fd5b50600436106100a95760003560e01c80639781b729116100715780639781b729146101665780639c3977b514610197578063b6c22611146101b5578063b95ddf02146101e5578063caa67d9914610215578063e3d986e114610245576100a9565b80631204ea71146100ae578063124992b0146100de5780634e887d74146101125780635824ebae1461012e5780635ee2cb621461014a575b600080fd5b6100c860048036038101906100c3919061105f565b610261565b6040516100d5919061109b565b60405180910390f35b6100f860048036038101906100f39190611114565b610279565b604051610109959493929190611188565b60405180910390f35b61012c60048036038101906101279190611207565b6102e6565b005b61014860048036038101906101439190611114565b610436565b005b610164600480360381019061015f9190611247565b6105df565b005b610180600480360381019061017b9190611207565b6106ce565b60405161018e929190611287565b60405180910390f35b61019f610896565b6040516101ac919061136e565b60405180910390f35b6101cf60048036038101906101ca919061105f565b6108ee565b6040516101dc919061109b565b60405180910390f35b6101ff60048036038101906101fa9190611390565b610912565b60405161020c91906114f2565b60405180910390f35b61022f600480360381019061022a9190611207565b610a04565b60405161023c9190611514565b60405180910390f35b61025f600480360381019061025a919061152f565b610b7c565b005b60016020528060005260406000206000915090505481565b6002602052816000526040600020818154811061029557600080fd5b9060005260206000209060040201600091509150508060000154908060010154908060020154908060030160009054906101000a900460ff16908060030160019054906101000a900460ff16905085565b6000600260008473ffffffffffffffffffffffffffffffffffffffff1673ffffffffffffffffffffffffffffffffffffffff168152602001908152602001600020905060005b81805490508110156103f6578282828154811061034c5761034b611582565b5b90600052602060002090600402016000015414801561039a575081818154811061037957610378611582565b5b906000526020600020906004020160030160019054906101000a900460ff16155b156103e35760018282815481106103b4576103b3611582565b5b906000526020600020906004020160030160016101000a81548160ff0219169083151502179055505050610432565b80806103ee906115e0565b91505061032c565b506040517f08c379a0000000000000000000000000000000000000000000000000000000008152600401610429906116ab565b60405180910390fd5b5050565b6000805b6003805490508110156104bc5760006003828154811061045d5761045c611582565b5b9060005260206000200154905080841015801561048c5750826001600083815260200190815260200160002054115b156104a857600160008281526020019081526020016000205492505b5080806104b4906115e0565b91505061043a565b5060008111156105da5760006104d3848342610fee565b9050600260008573ffffffffffffffffffffffffffffffffffffffff1673ffffffffffffffffffffffffffffffffffffffff1681526020019081526020016000206040518060a00160405280838152602001848152602001620546004261053a91906116cb565b815260200160001515815260200160001515815250908060018154018082558091505060019003906000526020600020906004020160009091909190915060008201518160000155602082015181600101556040820151816002015560608201518160030160006101000a81548160ff02191690831515021790555060808201518160030160016101000a81548160ff0219169083151502179055505050505b505050565b60008054906101000a900473ffffffffffffffffffffffffffffffffffffffff1673ffffffffffffffffffffffffffffffffffffffff163373ffffffffffffffffffffffffffffffffffffffff161461066d576040517f08c379a000000000000000000000000000000000000000000000000000000000815260040161066490611771565b60405180910390fd5b60006001600084815260200190815260200160002054036106b25760038290806001815401808255809150506001900390600052602060002001600090919091909150555b8060016000848152602001908152602001600020819055505050565b6000806000600260008673ffffffffffffffffffffffffffffffffffffffff1673ffffffffffffffffffffffffffffffffffffffff168152602001908152602001600020805480602002602001604051908101604052809291908181526020016000905b828210156107b857838290600052602060002090600402016040518060a00160405290816000820154815260200160018201548152602001600282015481526020016003820160009054906101000a900460ff161515151581526020016003820160019054906101000a900460ff16151515158152505081526020019060010190610732565b50505050905060005b815181101561088557848282815181106107de576107dd611582565b5b602002602001015160000151148015610813575081818151811061080557610804611582565b5b602002602001015160800151155b15610872576205460082828151811061082f5761082e611582565b5b60200260200101516040015161084591906116cb565b42111582828151811061085b5761085a611582565b5b60200260200101516020015193509350505061088f565b808061087d906115e0565b9150506107c1565b5060008092509250505b9250929050565b606060038054806020026020016040519081016040528092919081815260200182805480156108e457602002820191906000526020600020905b8154815260200190600101908083116108d0575b5050505050905090565b600381815481106108fe57600080fd5b906000526020600020016000915090505481565b6060600260008373ffffffffffffffffffffffffffffffffffffffff1673ffffffffffffffffffffffffffffffffffffffff168152602001908152602001600020805480602002602001604051908101604052809291908181526020016000905b828210156109f957838290600052602060002090600402016040518060a00160405290816000820154815260200160018201548152602001600282015481526020016003820160009054906101000a900460ff161515151581526020016003820160019054906101000a900460ff16151515158152505081526020019060010190610973565b505050509050919050565b600080600260008573ffffffffffffffffffffffffffffffffffffffff1673ffffffffffffffffffffffffffffffffffffffff168152602001908152602001600020805480602002602001604051908101604052809291908181526020016000905b82821015610aec57838290600052602060002090600402016040518060a00160405290816000820154815260200160018201548152602001600282015481526020016003820160009054906101000a900460ff161515151581526020016003820160019054906101000a900460ff16151515158152505081526020019060010190610a66565b50505050905060005b8151811015610b6f5783828281518110610b1257610b11611582565b5b60200260200101516000015103610b5c5762054600828281518110610b3a57610b39611582565b5b602002602001015160400151610b5091906116cb565b42111592505050610b76565b8080610b67906115e0565b915050610af5565b5060009150505b92915050565b600073ffffffffffffffffffffffffffffffffffffffff168273ffffffffffffffffffffffffffffffffffffffff1603610beb576040517f08c379a0000000000000000000000000000000000000000000000000000000008152600401610be2906117dd565b60405180910390fd5b6000600260008573ffffffffffffffffffffffffffffffffffffffff1673ffffffffffffffffffffffffffffffffffffffff168152602001908152602001600020905060005b8180549050811015610fad5782828281548110610c5157610c50611582565b5b906000526020600020906004020160000154148015610c9f5750818181548110610c7e57610c7d611582565b5b906000526020600020906004020160030160009054906101000a900460ff16155b8015610cda5750818181548110610cb957610cb8611582565b5b906000526020600020906004020160030160019054906101000a900460ff16155b15610f9a576000828281548110610cf457610cf3611582565b5b906000526020600020906004020160030160006101000a81548160ff0219169083151502179055506000828281548110610d3157610d30611582565b5b906000526020600020906004020160030160016101000a81548160ff021916908315150217905550600260008573ffffffffffffffffffffffffffffffffffffffff1673ffffffffffffffffffffffffffffffffffffffff168152602001908152602001600020828281548110610dab57610daa611582565b5b906000526020600020906004020190806001815401808255809150506001900390600052602060002090600402016000909190919091506000820154816000015560018201548160010155600282015481600201556003820160009054906101000a900460ff168160030160006101000a81548160ff0219169083151502179055506003820160019054906101000a900460ff168160030160016101000a81548160ff02191690831515021790555050508160018380549050610e6e91906117fd565b81548110610e7f57610e7e611582565b5b9060005260206000209060040201828281548110610ea057610e9f611582565b5b90600052602060002090600402016000820154816000015560018201548160010155600282015481600201556003820160009054906101000a900460ff168160030160006101000a81548160ff0219169083151502179055506003820160019054906101000a900460ff168160030160016101000a81548160ff02191690831515021790555090505081805480610f3a57610f39611831565b5b6001900381819060005260206000209060040201600080820160009055600182016000905560028201600090556003820160006101000a81549060ff02191690556003820160016101000a81549060ff0219169055505090555050610fe9565b8080610fa5906115e0565b915050610c31565b506040517f08c379a0000000000000000000000000000000000000000000000000000000008152600401610fe0906118d2565b60405180910390fd5b505050565b60008383836040516020016110059392919061195b565b6040516020818303038152906040528051906020012090509392505050565b600080fd5b6000819050919050565b61103c81611029565b811461104757600080fd5b50565b60008135905061105981611033565b92915050565b60006020828403121561107557611074611024565b5b60006110838482850161104a565b91505092915050565b61109581611029565b82525050565b60006020820190506110b0600083018461108c565b92915050565b600073ffffffffffffffffffffffffffffffffffffffff82169050919050565b60006110e1826110b6565b9050919050565b6110f1816110d6565b81146110fc57600080fd5b50565b60008135905061110e816110e8565b92915050565b6000806040838503121561112b5761112a611024565b5b6000611139858286016110ff565b925050602061114a8582860161104a565b9150509250929050565b6000819050919050565b61116781611154565b82525050565b60008115159050919050565b6111828161116d565b82525050565b600060a08201905061119d600083018861115e565b6111aa602083018761108c565b6111b7604083018661108c565b6111c46060830185611179565b6111d16080830184611179565b9695505050505050565b6111e481611154565b81146111ef57600080fd5b50565b600081359050611201816111db565b92915050565b6000806040838503121561121e5761121d611024565b5b600061122c858286016110ff565b925050602061123d858286016111f2565b9150509250929050565b6000806040838503121561125e5761125d611024565b5b600061126c8582860161104a565b925050602061127d8582860161104a565b9150509250929050565b600060408201905061129c6000830185611179565b6112a9602083018461108c565b9392505050565b600081519050919050565b600082825260208201905092915050565b6000819050602082019050919050565b6112e581611029565b82525050565b60006112f783836112dc565b60208301905092915050565b6000602082019050919050565b600061131b826112b0565b61132581856112bb565b9350611330836112cc565b8060005b8381101561136157815161134888826112eb565b975061135383611303565b925050600181019050611334565b5085935050505092915050565b600060208201905081810360008301526113888184611310565b905092915050565b6000602082840312156113a6576113a5611024565b5b60006113b4848285016110ff565b91505092915050565b600081519050919050565b600082825260208201905092915050565b6000819050602082019050919050565b6113f281611154565b82525050565b6114018161116d565b82525050565b60a08201600082015161141d60008501826113e9565b50602082015161143060208501826112dc565b50604082015161144360408501826112dc565b50606082015161145660608501826113f8565b50608082015161146960808501826113f8565b50505050565b600061147b8383611407565b60a08301905092915050565b6000602082019050919050565b600061149f826113bd565b6114a981856113c8565b93506114b4836113d9565b8060005b838110156114e55781516114cc888261146f565b97506114d783611487565b9250506001810190506114b8565b5085935050505092915050565b6000602082019050818103600083015261150c8184611494565b905092915050565b60006020820190506115296000830184611179565b92915050565b60008060006060848603121561154857611547611024565b5b6000611556868287016110ff565b9350506020611567868287016110ff565b9250506040611578868287016111f2565b9150509250925092565b7f4e487b7100000000000000000000000000000000000000000000000000000000600052603260045260246000fd5b7f4e487b7100000000000000000000000000000000000000000000000000000000600052601160045260246000fd5b60006115eb82611029565b91507fffffffffffffffffffffffffffffffffffffffffffffffffffffffffffffffff820361161d5761161c6115b1565b5b600182019050919050565b600082825260208201905092915050565b7f436f75706f6e206e6f7420666f756e64206f7220616c7265616479207769746860008201527f647261776e000000000000000000000000000000000000000000000000000000602082015250565b6000611695602583611628565b91506116a082611639565b604082019050919050565b600060208201905081810360008301526116c481611688565b9050919050565b60006116d682611029565b91506116e183611029565b92508282019050808211156116f9576116f86115b1565b5b92915050565b7f4f6e6c792061646d696e2063616e2063616c6c20746869732066756e6374696f60008201527f6e00000000000000000000000000000000000000000000000000000000000000602082015250565b600061175b602183611628565b9150611766826116ff565b604082019050919050565b6000602082019050818103600083015261178a8161174e565b9050919050565b7f496e76616c696420726563697069656e74206164647265737300000000000000600082015250565b60006117c7601983611628565b91506117d282611791565b602082019050919050565b600060208201905081810360008301526117f6816117ba565b9050919050565b600061180882611029565b915061181383611029565b925082820390508181111561182b5761182a6115b1565b5b92915050565b7f4e487b7100000000000000000000000000000000000000000000000000000000600052603160045260246000fd5b7f436f75706f6e206e6f7420666f756e64206f7220616c7265616479207573656460008201527f206f722077697468647261776e00000000000000000000000000000000000000602082015250565b60006118bc602d83611628565b91506118c782611860565b604082019050919050565b600060208201905081810360008301526118eb816118af565b9050919050565b60008160601b9050919050565b600061190a826118f2565b9050919050565b600061191c826118ff565b9050919050565b61193461192f826110d6565b611911565b82525050565b6000819050919050565b61195561195082611029565b61193a565b82525050565b60006119678286611923565b6014820191506119778285611944565b6020820191506119878284611944565b60208201915081905094935050505056fea2646970667358221220e50cb9bab979394a4f88e6311f4e443e24beaa393405ef5c0a0f3ba47b96423b64736f6c63430008130033",
  "linkReferences": {},
  "deployedLinkReferences": {}
}