{
  "_format": "hh-sol-artifact-1",
  "contractName": "NFTLending",
  "sourceName": "contracts/client/NFTLending.sol",
  "abi": [
    {
      "inputs": [
        {
          "internalType": "address",
          "name": "_nftContract",
          "type": "address"
        }
      ],
      "stateMutability": "nonpayable",
      "type": "constructor"
    },
    {
      "anonymous": false,
      "inputs": [
        {
          "indexed": true,
          "internalType": "uint256",
          "name": "lendingId",
          "type": "uint256"
        },
        {
          "indexed": true,
          "internalType": "address",
          "name": "lender",
          "type": "address"
        },
        {
          "indexed": false,
          "internalType": "uint256",
          "name": "tokenId",
          "type": "uint256"
        },
        {
          "indexed": false,
          "internalType": "uint256",
          "name": "duration",
          "type": "uint256"
        },
        {
          "indexed": false,
          "internalType": "uint256",
          "name": "lendingAmount",
          "type": "uint256"
        }
      ],
      "name": "NFTLent",
      "type": "event"
    },
    {
      "anonymous": false,
      "inputs": [
        {
          "indexed": true,
          "internalType": "uint256",
          "name": "lendingId",
          "type": "uint256"
        },
        {
          "indexed": true,
          "internalType": "address",
          "name": "borrower",
          "type": "address"
        },
        {
          "indexed": false,
          "internalType": "uint256",
          "name": "startTime",
          "type": "uint256"
        },
        {
          "indexed": false,
          "internalType": "uint256",
          "name": "endTime",
          "type": "uint256"
        }
      ],
      "name": "NFTRented",
      "type": "event"
    },
    {
      "anonymous": false,
      "inputs": [
        {
          "indexed": true,
          "internalType": "uint256",
          "name": "lendingId",
          "type": "uint256"
        },
        {
          "indexed": true,
          "internalType": "address",
          "name": "lender",
          "type": "address"
        }
      ],
      "name": "NFTRetrieved",
      "type": "event"
    },
    {
      "inputs": [],
      "name": "getActiveLendings",
      "outputs": [
        {
          "components": [
            {
              "internalType": "uint256",
              "name": "lendingId",
              "type": "uint256"
            },
            {
              "internalType": "uint256",
              "name": "tokenId",
              "type": "uint256"
            },
            {
              "internalType": "bytes32",
              "name": "gameId",
              "type": "bytes32"
            },
            {
              "internalType": "string",
              "name": "gameName",
              "type": "string"
            },
            {
              "internalType": "address",
              "name": "lender",
              "type": "address"
            },
            {
              "internalType": "address",
              "name": "borrower",
              "type": "address"
            },
            {
              "internalType": "uint256",
              "name": "startTime",
              "type": "uint256"
            },
            {
              "internalType": "uint256",
              "name": "duration",
              "type": "uint256"
            },
            {
              "internalType": "uint256",
              "name": "lendingAmount",
              "type": "uint256"
            },
            {
              "internalType": "bool",
              "name": "isActive",
              "type": "bool"
            }
          ],
          "internalType": "struct NFTLending.Lending[]",
          "name": "",
          "type": "tuple[]"
        }
      ],
      "stateMutability": "view",
      "type": "function"
    },
    {
      "inputs": [
        {
          "internalType": "address",
          "name": "borrower",
          "type": "address"
        },
        {
          "internalType": "uint256",
          "name": "currentTime",
          "type": "uint256"
        }
      ],
      "name": "getBorrowedNFTs",
      "outputs": [
        {
          "components": [
            {
              "internalType": "uint256",
              "name": "lendingId",
              "type": "uint256"
            },
            {
              "internalType": "uint256",
              "name": "tokenId",
              "type": "uint256"
            },
            {
              "internalType": "bytes32",
              "name": "gameId",
              "type": "bytes32"
            },
            {
              "internalType": "string",
              "name": "gameName",
              "type": "string"
            },
            {
              "internalType": "address",
              "name": "lender",
              "type": "address"
            },
            {
              "internalType": "address",
              "name": "borrower",
              "type": "address"
            },
            {
              "internalType": "uint256",
              "name": "startTime",
              "type": "uint256"
            },
            {
              "internalType": "uint256",
              "name": "duration",
              "type": "uint256"
            },
            {
              "internalType": "uint256",
              "name": "lendingAmount",
              "type": "uint256"
            },
            {
              "internalType": "bool",
              "name": "isActive",
              "type": "bool"
            }
          ],
          "internalType": "struct NFTLending.Lending[]",
          "name": "",
          "type": "tuple[]"
        }
      ],
      "stateMutability": "view",
      "type": "function"
    },
    {
      "inputs": [
        {
          "internalType": "uint256",
          "name": "lendingId",
          "type": "uint256"
        }
      ],
      "name": "getLending",
      "outputs": [
        {
          "components": [
            {
              "internalType": "uint256",
              "name": "lendingId",
              "type": "uint256"
            },
            {
              "internalType": "uint256",
              "name": "tokenId",
              "type": "uint256"
            },
            {
              "internalType": "bytes32",
              "name": "gameId",
              "type": "bytes32"
            },
            {
              "internalType": "string",
              "name": "gameName",
              "type": "string"
            },
            {
              "internalType": "address",
              "name": "lender",
              "type": "address"
            },
            {
              "internalType": "address",
              "name": "borrower",
              "type": "address"
            },
            {
              "internalType": "uint256",
              "name": "startTime",
              "type": "uint256"
            },
            {
              "internalType": "uint256",
              "name": "duration",
              "type": "uint256"
            },
            {
              "internalType": "uint256",
              "name": "lendingAmount",
              "type": "uint256"
            },
            {
              "internalType": "bool",
              "name": "isActive",
              "type": "bool"
            }
          ],
          "internalType": "struct NFTLending.Lending",
          "name": "",
          "type": "tuple"
        }
      ],
      "stateMutability": "view",
      "type": "function"
    },
    {
      "inputs": [
        {
          "internalType": "uint256",
          "name": "",
          "type": "uint256"
        }
      ],
      "name": "isLent",
      "outputs": [
        {
          "internalType": "bool",
          "name": "",
          "type": "bool"
        }
      ],
      "stateMutability": "view",
      "type": "function"
    },
    {
      "inputs": [
        {
          "internalType": "uint256",
          "name": "tokenId",
          "type": "uint256"
        },
        {
          "internalType": "uint256",
          "name": "lendingAmount",
          "type": "uint256"
        },
        {
          "internalType": "uint256",
          "name": "duration",
          "type": "uint256"
        },
        {
          "internalType": "bytes32",
          "name": "gameId",
          "type": "bytes32"
        },
        {
          "internalType": "string",
          "name": "gameName",
          "type": "string"
        }
      ],
      "name": "lendNFT",
      "outputs": [],
      "stateMutability": "nonpayable",
      "type": "function"
    },
    {
      "inputs": [],
      "name": "lendingCount",
      "outputs": [
        {
          "internalType": "uint256",
          "name": "",
          "type": "uint256"
        }
      ],
      "stateMutability": "view",
      "type": "function"
    },
    {
      "inputs": [
        {
          "internalType": "uint256",
          "name": "",
          "type": "uint256"
        }
      ],
      "name": "lendings",
      "outputs": [
        {
          "internalType": "uint256",
          "name": "lendingId",
          "type": "uint256"
        },
        {
          "internalType": "uint256",
          "name": "tokenId",
          "type": "uint256"
        },
        {
          "internalType": "bytes32",
          "name": "gameId",
          "type": "bytes32"
        },
        {
          "internalType": "string",
          "name": "gameName",
          "type": "string"
        },
        {
          "internalType": "address",
          "name": "lender",
          "type": "address"
        },
        {
          "internalType": "address",
          "name": "borrower",
          "type": "address"
        },
        {
          "internalType": "uint256",
          "name": "startTime",
          "type": "uint256"
        },
        {
          "internalType": "uint256",
          "name": "duration",
          "type": "uint256"
        },
        {
          "internalType": "uint256",
          "name": "lendingAmount",
          "type": "uint256"
        },
        {
          "internalType": "bool",
          "name": "isActive",
          "type": "bool"
        }
      ],
      "stateMutability": "view",
      "type": "function"
    },
    {
      "inputs": [
        {
          "internalType": "uint256",
          "name": "lendingId",
          "type": "uint256"
        }
      ],
      "name": "rentNFT",
      "outputs": [],
      "stateMutability": "payable",
      "type": "function"
    },
    {
      "inputs": [
        {
          "internalType": "uint256",
          "name": "lendingId",
          "type": "uint256"
        }
      ],
      "name": "retrieveNFT",
      "outputs": [],
      "stateMutability": "nonpayable",
      "type": "function"
    }
  ],
  "bytecode": "0x60806040523480156200001157600080fd5b506040516200290a3803806200290a8339818101604052810190620000379190620000e8565b806000806101000a81548173ffffffffffffffffffffffffffffffffffffffff021916908373ffffffffffffffffffffffffffffffffffffffff160217905550506200011a565b600080fd5b600073ffffffffffffffffffffffffffffffffffffffff82169050919050565b6000620000b08262000083565b9050919050565b620000c281620000a3565b8114620000ce57600080fd5b50565b600081519050620000e281620000b7565b92915050565b6000602082840312156200010157620001006200007e565b5b60006200011184828501620000d1565b91505092915050565b6127e0806200012a6000396000f3fe6080604052600436106100865760003560e01c806382ade53b1161005957806382ade53b14610153578063b3277d3e14610190578063b35ddf94146101cd578063b7cb62cc146101f8578063da0c47b21461022357610086565b806302fd2bef1461008b5780630a1d7c5f146100c857806314364f1d146100f15780637080576e1461010d575b600080fd5b34801561009757600080fd5b506100b260048036038101906100ad9190611891565b61024c565b6040516100bf9190611b4f565b60405180910390f35b3480156100d457600080fd5b506100ef60048036038101906100ea9190611b71565b610696565b005b61010b60048036038101906101069190611b71565b610b03565b005b34801561011957600080fd5b50610134600480360381019061012f9190611b71565b610cfa565b60405161014a9a99989796959493929190611c24565b60405180910390f35b34801561015f57600080fd5b5061017a60048036038101906101759190611b71565b610e23565b6040516101879190611cc7565b60405180910390f35b34801561019c57600080fd5b506101b760048036038101906101b29190611b71565b610e43565b6040516101c49190611dbc565b60405180910390f35b3480156101d957600080fd5b506101e2611006565b6040516101ef9190611dde565b60405180910390f35b34801561020457600080fd5b5061020d61100c565b60405161021a9190611b4f565b60405180910390f35b34801561022f57600080fd5b5061024a60048036038101906102459190611e8a565b6112f5565b005b60606000805b600154811015610356578473ffffffffffffffffffffffffffffffffffffffff166002600083815260200190815260200160002060050160009054906101000a900473ffffffffffffffffffffffffffffffffffffffff1673ffffffffffffffffffffffffffffffffffffffff161480156102ed57506002600082815260200190815260200160002060090160009054906101000a900460ff165b801561032f57506002600082815260200190815260200160002060070154600260008381526020019081526020016000206006015461032c9190611f53565b84105b1561034357818061033f90611f87565b9250505b808061034e90611f87565b915050610252565b5060008167ffffffffffffffff81111561037357610372611fcf565b5b6040519080825280602002602001820160405280156103ac57816020015b61039961176f565b8152602001906001900390816103915790505b5090506000805b600154811015610689578673ffffffffffffffffffffffffffffffffffffffff166002600083815260200190815260200160002060050160009054906101000a900473ffffffffffffffffffffffffffffffffffffffff1673ffffffffffffffffffffffffffffffffffffffff1614801561044e57506002600082815260200190815260200160002060090160009054906101000a900460ff165b801561049057506002600082815260200190815260200160002060070154600260008381526020019081526020016000206006015461048d9190611f53565b86105b156106765760026000828152602001908152602001600020604051806101400160405290816000820154815260200160018201548152602001600282015481526020016003820180546104e29061202d565b80601f016020809104026020016040519081016040528092919081815260200182805461050e9061202d565b801561055b5780601f106105305761010080835404028352916020019161055b565b820191906000526020600020905b81548152906001019060200180831161053e57829003601f168201915b505050505081526020016004820160009054906101000a900473ffffffffffffffffffffffffffffffffffffffff1673ffffffffffffffffffffffffffffffffffffffff1673ffffffffffffffffffffffffffffffffffffffff1681526020016005820160009054906101000a900473ffffffffffffffffffffffffffffffffffffffff1673ffffffffffffffffffffffffffffffffffffffff1673ffffffffffffffffffffffffffffffffffffffff1681526020016006820154815260200160078201548152602001600882015481526020016009820160009054906101000a900460ff16151515158152505083838151811061065c5761065b61205e565b5b6020026020010181905250818061067290611f87565b9250505b808061068190611f87565b9150506103b3565b5081935050505092915050565b60006002600083815260200190815260200160002090508060090160009054906101000a900460ff166106fe576040517f08c379a00000000000000000000000000000000000000000000000000000000081526004016106f5906120d9565b60405180910390fd5b3373ffffffffffffffffffffffffffffffffffffffff168160040160009054906101000a900473ffffffffffffffffffffffffffffffffffffffff1673ffffffffffffffffffffffffffffffffffffffff1614610790576040517f08c379a00000000000000000000000000000000000000000000000000000000081526004016107879061216b565b60405180910390fd5b60008160060154036108ed5760008160090160006101000a81548160ff0219169083151502179055506000600360008360010154815260200190815260200160002060006101000a81548160ff02191690831515021790555060008054906101000a900473ffffffffffffffffffffffffffffffffffffffff1673ffffffffffffffffffffffffffffffffffffffff166355fcc785826002015483600101548460040160009054906101000a900473ffffffffffffffffffffffffffffffffffffffff166040518463ffffffff1660e01b81526004016108729392919061218b565b600060405180830381600087803b15801561088c57600080fd5b505af11580156108a0573d6000803e3d6000fd5b505050503373ffffffffffffffffffffffffffffffffffffffff16827fba1a659c2a8b6cd5cb8a0436d947ba7402e589efcfa59751e3f94242f749b7e760405160405180910390a3610aff565b806007015481600601546109019190611f53565b421015610943576040517f08c379a000000000000000000000000000000000000000000000000000000000815260040161093a9061220e565b60405180910390fd5b60008160090160006101000a81548160ff0219169083151502179055506000600360008360010154815260200190815260200160002060006101000a81548160ff02191690831515021790555060008054906101000a900473ffffffffffffffffffffffffffffffffffffffff1673ffffffffffffffffffffffffffffffffffffffff166355fcc785826002015483600101548460040160009054906101000a900473ffffffffffffffffffffffffffffffffffffffff166040518463ffffffff1660e01b8152600401610a199392919061218b565b600060405180830381600087803b158015610a3357600080fd5b505af1158015610a47573d6000803e3d6000fd5b505050508060040160009054906101000a900473ffffffffffffffffffffffffffffffffffffffff1673ffffffffffffffffffffffffffffffffffffffff166108fc82600801549081150290604051600060405180830381858888f19350505050158015610ab9573d6000803e3d6000fd5b503373ffffffffffffffffffffffffffffffffffffffff16827fba1a659c2a8b6cd5cb8a0436d947ba7402e589efcfa59751e3f94242f749b7e760405160405180910390a35b5050565b60006002600083815260200190815260200160002090508060090160009054906101000a900460ff16610b6b576040517f08c379a0000000000000000000000000000000000000000000000000000000008152600401610b62906120d9565b60405180910390fd5b600073ffffffffffffffffffffffffffffffffffffffff168160050160009054906101000a900473ffffffffffffffffffffffffffffffffffffffff1673ffffffffffffffffffffffffffffffffffffffff1614610bfe576040517f08c379a0000000000000000000000000000000000000000000000000000000008152600401610bf59061227a565b60405180910390fd5b80600801543414610c44576040517f08c379a0000000000000000000000000000000000000000000000000000000008152600401610c3b906122e6565b60405180910390fd5b338160050160006101000a81548173ffffffffffffffffffffffffffffffffffffffff021916908373ffffffffffffffffffffffffffffffffffffffff1602179055504281600601819055506000816007015442610ca29190611f53565b90503373ffffffffffffffffffffffffffffffffffffffff16837f540e39b4120dc879102357b1015e8bd642c62615c854e26df377834ebcd236574284604051610ced929190612306565b60405180910390a3505050565b6002602052806000526040600020600091509050806000015490806001015490806002015490806003018054610d2f9061202d565b80601f0160208091040260200160405190810160405280929190818152602001828054610d5b9061202d565b8015610da85780601f10610d7d57610100808354040283529160200191610da8565b820191906000526020600020905b815481529060010190602001808311610d8b57829003601f168201915b5050505050908060040160009054906101000a900473ffffffffffffffffffffffffffffffffffffffff16908060050160009054906101000a900473ffffffffffffffffffffffffffffffffffffffff16908060060154908060070154908060080154908060090160009054906101000a900460ff1690508a565b60036020528060005260406000206000915054906101000a900460ff1681565b610e4b61176f565b6002600083815260200190815260200160002060405180610140016040529081600082015481526020016001820154815260200160028201548152602001600382018054610e989061202d565b80601f0160208091040260200160405190810160405280929190818152602001828054610ec49061202d565b8015610f115780601f10610ee657610100808354040283529160200191610f11565b820191906000526020600020905b815481529060010190602001808311610ef457829003601f168201915b505050505081526020016004820160009054906101000a900473ffffffffffffffffffffffffffffffffffffffff1673ffffffffffffffffffffffffffffffffffffffff1673ffffffffffffffffffffffffffffffffffffffff1681526020016005820160009054906101000a900473ffffffffffffffffffffffffffffffffffffffff1673ffffffffffffffffffffffffffffffffffffffff1673ffffffffffffffffffffffffffffffffffffffff1681526020016006820154815260200160078201548152602001600882015481526020016009820160009054906101000a900460ff1615151515815250509050919050565b60015481565b60606000805b600154811015611067576002600082815260200190815260200160002060090160009054906101000a900460ff161561105457818061105090611f87565b9250505b808061105f90611f87565b915050611012565b5060008167ffffffffffffffff81111561108457611083611fcf565b5b6040519080825280602002602001820160405280156110bd57816020015b6110aa61176f565b8152602001906001900390816110a25790505b5090506000805b6001548110156112eb576002600082815260200190815260200160002060090160009054906101000a900460ff16156112d85760026000828152602001908152602001600020604051806101400160405290816000820154815260200160018201548152602001600282015481526020016003820180546111449061202d565b80601f01602080910402602001604051908101604052809291908181526020018280546111709061202d565b80156111bd5780601f10611192576101008083540402835291602001916111bd565b820191906000526020600020905b8154815290600101906020018083116111a057829003601f168201915b505050505081526020016004820160009054906101000a900473ffffffffffffffffffffffffffffffffffffffff1673ffffffffffffffffffffffffffffffffffffffff1673ffffffffffffffffffffffffffffffffffffffff1681526020016005820160009054906101000a900473ffffffffffffffffffffffffffffffffffffffff1673ffffffffffffffffffffffffffffffffffffffff1673ffffffffffffffffffffffffffffffffffffffff1681526020016006820154815260200160078201548152602001600882015481526020016009820160009054906101000a900460ff1615151515815250508383815181106112be576112bd61205e565b5b602002602001018190525081806112d490611f87565b9250505b80806112e390611f87565b9150506110c4565b5081935050505090565b3373ffffffffffffffffffffffffffffffffffffffff1660008054906101000a900473ffffffffffffffffffffffffffffffffffffffff1673ffffffffffffffffffffffffffffffffffffffff16636d7ee6ed88866040518363ffffffff1660e01b815260040161136792919061232f565b602060405180830381865afa158015611384573d6000803e3d6000fd5b505050506040513d601f19601f820116820180604052508101906113a8919061236d565b73ffffffffffffffffffffffffffffffffffffffff16146113fe576040517f08c379a00000000000000000000000000000000000000000000000000000000081526004016113f59061240c565b60405180910390fd5b6003600087815260200190815260200160002060009054906101000a900460ff161561145f576040517f08c379a000000000000000000000000000000000000000000000000000000000815260040161145690612478565b60405180910390fd5b604051806101400160405280600154815260200187815260200184815260200183838080601f016020809104026020016040519081016040528093929190818152602001838380828437600081840152601f19601f8201169050808301925050505050505081526020013373ffffffffffffffffffffffffffffffffffffffff168152602001600073ffffffffffffffffffffffffffffffffffffffff168152602001600081526020018581526020018681526020016001151581525060026000600154815260200190815260200160002060008201518160000155602082015181600101556040820151816002015560608201518160030190816115649190612644565b5060808201518160040160006101000a81548173ffffffffffffffffffffffffffffffffffffffff021916908373ffffffffffffffffffffffffffffffffffffffff16021790555060a08201518160050160006101000a81548173ffffffffffffffffffffffffffffffffffffffff021916908373ffffffffffffffffffffffffffffffffffffffff16021790555060c0820151816006015560e0820151816007015561010082015181600801556101208201518160090160006101000a81548160ff02191690831515021790555090505060016003600088815260200190815260200160002060006101000a81548160ff0219169083151502179055506001600081548092919061167590611f87565b919050555060008054906101000a900473ffffffffffffffffffffffffffffffffffffffff1673ffffffffffffffffffffffffffffffffffffffff1663c898e3d384886040518363ffffffff1660e01b81526004016116d5929190612716565b600060405180830381600087803b1580156116ef57600080fd5b505af1158015611703573d6000803e3d6000fd5b505050503373ffffffffffffffffffffffffffffffffffffffff166001805461172c919061273f565b7fc3c2db2ac5fcfb76728307ea882a3e78898d8c30b069f0a7a8f32ba85e16672788878960405161175f93929190612773565b60405180910390a3505050505050565b60405180610140016040528060008152602001600081526020016000801916815260200160608152602001600073ffffffffffffffffffffffffffffffffffffffff168152602001600073ffffffffffffffffffffffffffffffffffffffff1681526020016000815260200160008152602001600081526020016000151581525090565b600080fd5b600080fd5b600073ffffffffffffffffffffffffffffffffffffffff82169050919050565b6000611828826117fd565b9050919050565b6118388161181d565b811461184357600080fd5b50565b6000813590506118558161182f565b92915050565b6000819050919050565b61186e8161185b565b811461187957600080fd5b50565b60008135905061188b81611865565b92915050565b600080604083850312156118a8576118a76117f3565b5b60006118b685828601611846565b92505060206118c78582860161187c565b9150509250929050565b600081519050919050565b600082825260208201905092915050565b6000819050602082019050919050565b6119068161185b565b82525050565b6000819050919050565b61191f8161190c565b82525050565b600081519050919050565b600082825260208201905092915050565b60005b8381101561195f578082015181840152602081019050611944565b60008484015250505050565b6000601f19601f8301169050919050565b600061198782611925565b6119918185611930565b93506119a1818560208601611941565b6119aa8161196b565b840191505092915050565b6119be8161181d565b82525050565b60008115159050919050565b6119d9816119c4565b82525050565b6000610140830160008301516119f860008601826118fd565b506020830151611a0b60208601826118fd565b506040830151611a1e6040860182611916565b5060608301518482036060860152611a36828261197c565b9150506080830151611a4b60808601826119b5565b5060a0830151611a5e60a08601826119b5565b5060c0830151611a7160c08601826118fd565b5060e0830151611a8460e08601826118fd565b50610100830151611a996101008601826118fd565b50610120830151611aae6101208601826119d0565b508091505092915050565b6000611ac583836119df565b905092915050565b6000602082019050919050565b6000611ae5826118d1565b611aef81856118dc565b935083602082028501611b01856118ed565b8060005b85811015611b3d5784840389528151611b1e8582611ab9565b9450611b2983611acd565b925060208a01995050600181019050611b05565b50829750879550505050505092915050565b60006020820190508181036000830152611b698184611ada565b905092915050565b600060208284031215611b8757611b866117f3565b5b6000611b958482850161187c565b91505092915050565b611ba78161185b565b82525050565b611bb68161190c565b82525050565b600082825260208201905092915050565b6000611bd882611925565b611be28185611bbc565b9350611bf2818560208601611941565b611bfb8161196b565b840191505092915050565b611c0f8161181d565b82525050565b611c1e816119c4565b82525050565b600061014082019050611c3a600083018d611b9e565b611c47602083018c611b9e565b611c54604083018b611bad565b8181036060830152611c66818a611bcd565b9050611c756080830189611c06565b611c8260a0830188611c06565b611c8f60c0830187611b9e565b611c9c60e0830186611b9e565b611caa610100830185611b9e565b611cb8610120830184611c15565b9b9a5050505050505050505050565b6000602082019050611cdc6000830184611c15565b92915050565b600061014083016000830151611cfb60008601826118fd565b506020830151611d0e60208601826118fd565b506040830151611d216040860182611916565b5060608301518482036060860152611d39828261197c565b9150506080830151611d4e60808601826119b5565b5060a0830151611d6160a08601826119b5565b5060c0830151611d7460c08601826118fd565b5060e0830151611d8760e08601826118fd565b50610100830151611d9c6101008601826118fd565b50610120830151611db16101208601826119d0565b508091505092915050565b60006020820190508181036000830152611dd68184611ce2565b905092915050565b6000602082019050611df36000830184611b9e565b92915050565b611e028161190c565b8114611e0d57600080fd5b50565b600081359050611e1f81611df9565b92915050565b600080fd5b600080fd5b600080fd5b60008083601f840112611e4a57611e49611e25565b5b8235905067ffffffffffffffff811115611e6757611e66611e2a565b5b602083019150836001820283011115611e8357611e82611e2f565b5b9250929050565b60008060008060008060a08789031215611ea757611ea66117f3565b5b6000611eb589828a0161187c565b9650506020611ec689828a0161187c565b9550506040611ed789828a0161187c565b9450506060611ee889828a01611e10565b935050608087013567ffffffffffffffff811115611f0957611f086117f8565b5b611f1589828a01611e34565b92509250509295509295509295565b7f4e487b7100000000000000000000000000000000000000000000000000000000600052601160045260246000fd5b6000611f5e8261185b565b9150611f698361185b565b9250828201905080821115611f8157611f80611f24565b5b92915050565b6000611f928261185b565b91507fffffffffffffffffffffffffffffffffffffffffffffffffffffffffffffffff8203611fc457611fc3611f24565b5b600182019050919050565b7f4e487b7100000000000000000000000000000000000000000000000000000000600052604160045260246000fd5b7f4e487b7100000000000000000000000000000000000000000000000000000000600052602260045260246000fd5b6000600282049050600182168061204557607f821691505b60208210810361205857612057611ffe565b5b50919050565b7f4e487b7100000000000000000000000000000000000000000000000000000000600052603260045260246000fd5b7f4c656e64696e67206973206e6f74206163746976650000000000000000000000600082015250565b60006120c3601583611bbc565b91506120ce8261208d565b602082019050919050565b600060208201905081810360008301526120f2816120b6565b9050919050565b7f596f7520617265206e6f7420746865206c656e646572206f662074686973204e60008201527f4654000000000000000000000000000000000000000000000000000000000000602082015250565b6000612155602283611bbc565b9150612160826120f9565b604082019050919050565b6000602082019050818103600083015261218481612148565b9050919050565b60006060820190506121a06000830186611bad565b6121ad6020830185611b9e565b6121ba6040830184611c06565b949350505050565b7f4c656e64696e6720706572696f6420686173206e6f7420656e64656400000000600082015250565b60006121f8601c83611bbc565b9150612203826121c2565b602082019050919050565b60006020820190508181036000830152612227816121eb565b9050919050565b7f4e465420697320616c72656164792072656e7465640000000000000000000000600082015250565b6000612264601583611bbc565b915061226f8261222e565b602082019050919050565b6000602082019050818103600083015261229381612257565b9050919050565b7f496e636f727265637420616d6f756e742073656e740000000000000000000000600082015250565b60006122d0601583611bbc565b91506122db8261229a565b602082019050919050565b600060208201905081810360008301526122ff816122c3565b9050919050565b600060408201905061231b6000830185611b9e565b6123286020830184611b9e565b9392505050565b60006040820190506123446000830185611b9e565b6123516020830184611bad565b9392505050565b6000815190506123678161182f565b92915050565b600060208284031215612383576123826117f3565b5b600061239184828501612358565b91505092915050565b7f596f7520617265206e6f7420746865206f776e6572206f662074686973204e4660008201527f5400000000000000000000000000000000000000000000000000000000000000602082015250565b60006123f6602183611bbc565b91506124018261239a565b604082019050919050565b60006020820190508181036000830152612425816123e9565b9050919050565b7f4e465420697320616c7265616479206c656e7400000000000000000000000000600082015250565b6000612462601383611bbc565b915061246d8261242c565b602082019050919050565b6000602082019050818103600083015261249181612455565b9050919050565b60008190508160005260206000209050919050565b60006020601f8301049050919050565b600082821b905092915050565b6000600883026124fa7fffffffffffffffffffffffffffffffffffffffffffffffffffffffffffffffff826124bd565b61250486836124bd565b95508019841693508086168417925050509392505050565b6000819050919050565b600061254161253c6125378461185b565b61251c565b61185b565b9050919050565b6000819050919050565b61255b83612526565b61256f61256782612548565b8484546124ca565b825550505050565b600090565b612584612577565b61258f818484612552565b505050565b5b818110156125b3576125a860008261257c565b600181019050612595565b5050565b601f8211156125f8576125c981612498565b6125d2846124ad565b810160208510156125e1578190505b6125f56125ed856124ad565b830182612594565b50505b505050565b600082821c905092915050565b600061261b600019846008026125fd565b1980831691505092915050565b6000612634838361260a565b9150826002028217905092915050565b61264d82611925565b67ffffffffffffffff81111561266657612665611fcf565b5b612670825461202d565b61267b8282856125b7565b600060209050601f8311600181146126ae576000841561269c578287015190505b6126a68582612628565b86555061270e565b601f1984166126bc86612498565b60005b828110156126e4578489015182556001820191506020850194506020810190506126bf565b8683101561270157848901516126fd601f89168261260a565b8355505b6001600288020188555050505b505050505050565b600060408201905061272b6000830185611bad565b6127386020830184611b9e565b9392505050565b600061274a8261185b565b91506127558361185b565b925082820390508181111561276d5761276c611f24565b5b92915050565b60006060820190506127886000830186611b9e565b6127956020830185611b9e565b6127a26040830184611b9e565b94935050505056fea264697066735822122019ce1a802195e4d99531d9d1c9c989470b16ba11da52bda632d1304deff703f864736f6c63430008130033",
  "linkReferences": {},
  "deployedLinkReferences": {}
}