{
  "_format": "hh-sol-artifact-1",
  "contractName": "OnChain",
  "sourceName": "contracts/main/OnChain.sol",
  "abi": [
    {
      "inputs": [
        {
          "internalType": "address",
          "name": "_feeCollectorAddress",
          "type": "address"
        }
      ],
      "stateMutability": "nonpayable",
      "type": "constructor"
    },
    {
      "anonymous": false,
      "inputs": [
        {
          "indexed": false,
          "internalType": "bytes32",
          "name": "messageHash",
          "type": "bytes32"
        },
        {
          "indexed": false,
          "internalType": "uint256",
          "name": "targetChainId",
          "type": "uint256"
        },
        {
          "components": [
            {
              "internalType": "address",
              "name": "receiver",
              "type": "address"
            },
            {
              "internalType": "bytes",
              "name": "data",
              "type": "bytes"
            }
          ],
          "indexed": false,
          "internalType": "struct Message.MessageInfo",
          "name": "message",
          "type": "tuple"
        },
        {
          "indexed": false,
          "internalType": "uint256",
          "name": "networkFee",
          "type": "uint256"
        },
        {
          "indexed": false,
          "internalType": "uint256",
          "name": "value",
          "type": "uint256"
        },
        {
          "indexed": false,
          "internalType": "address",
          "name": "sender",
          "type": "address"
        },
        {
          "indexed": false,
          "internalType": "uint256",
          "name": "gasPrice",
          "type": "uint256"
        }
      ],
      "name": "CrossChainMessageInitiated",
      "type": "event"
    },
    {
      "inputs": [
        {
          "internalType": "uint256",
          "name": "_targetChainId",
          "type": "uint256"
        },
        {
          "components": [
            {
              "internalType": "address",
              "name": "receiver",
              "type": "address"
            },
            {
              "internalType": "bytes",
              "name": "data",
              "type": "bytes"
            }
          ],
          "internalType": "struct Message.MessageInfo",
          "name": "_message",
          "type": "tuple"
        },
        {
          "internalType": "uint256",
          "name": "networkFee",
          "type": "uint256"
        },
        {
          "internalType": "uint256",
          "name": "value",
          "type": "uint256"
        },
        {
          "internalType": "address",
          "name": "sender",
          "type": "address"
        },
        {
          "internalType": "uint256",
          "name": "gasPrice",
          "type": "uint256"
        }
      ],
      "name": "CrossChainMessageSend",
      "outputs": [
        {
          "internalType": "bytes32",
          "name": "",
          "type": "bytes32"
        }
      ],
      "stateMutability": "payable",
      "type": "function"
    },
    {
      "inputs": [],
      "name": "getFee",
      "outputs": [
        {
          "internalType": "uint256",
          "name": "fee",
          "type": "uint256"
        }
      ],
      "stateMutability": "view",
      "type": "function"
    },
    {
      "inputs": [
        {
          "internalType": "uint256",
          "name": "_destGasPerPayloadByte",
          "type": "uint256"
        }
      ],
      "name": "updateDestGasPerPayloadByte",
      "outputs": [],
      "stateMutability": "nonpayable",
      "type": "function"
    },
    {
      "inputs": [
        {
          "internalType": "uint256",
          "name": "_gasLimit",
          "type": "uint256"
        }
      ],
      "name": "updateGasLimit",
      "outputs": [],
      "stateMutability": "nonpayable",
      "type": "function"
    },
    {
      "inputs": [
        {
          "internalType": "uint256",
          "name": "_relayerFee",
          "type": "uint256"
        }
      ],
      "name": "updateRelayerFee",
      "outputs": [],
      "stateMutability": "nonpayable",
      "type": "function"
    }
  ],
  "bytecode": "0x6080604052615208600255600a600355655af3107a40006004556404a817c80060055534801561002e57600080fd5b50604051610ba5380380610ba58339818101604052810190610050919061013a565b80600160006101000a81548173ffffffffffffffffffffffffffffffffffffffff021916908373ffffffffffffffffffffffffffffffffffffffff160217905550336000806101000a81548173ffffffffffffffffffffffffffffffffffffffff021916908373ffffffffffffffffffffffffffffffffffffffff16021790555050610167565b600080fd5b600073ffffffffffffffffffffffffffffffffffffffff82169050919050565b6000610107826100dc565b9050919050565b610117816100fc565b811461012257600080fd5b50565b6000815190506101348161010e565b92915050565b6000602082840312156101505761014f6100d7565b5b600061015e84828501610125565b91505092915050565b610a2f806101766000396000f3fe60806040526004361061004a5760003560e01c806306872f181461004f57806348ecd48c146100785780637f36bbda146100a1578063ced72f87146100d1578063f687d12a146100fc575b600080fd5b34801561005b57600080fd5b5061007660048036038101906100719190610463565b610125565b005b34801561008457600080fd5b5061009f600480360381019061009a9190610463565b6101bd565b005b6100bb60048036038101906100b69190610512565b610255565b6040516100c891906105d4565b60405180910390f35b3480156100dd57600080fd5b506100e6610381565b6040516100f391906105fe565b60405180910390f35b34801561010857600080fd5b50610123600480360381019061011e9190610463565b61038b565b005b60008054906101000a900473ffffffffffffffffffffffffffffffffffffffff1673ffffffffffffffffffffffffffffffffffffffff163373ffffffffffffffffffffffffffffffffffffffff16146101b3576040517f08c379a00000000000000000000000000000000000000000000000000000000081526004016101aa9061069c565b60405180910390fd5b8060048190555050565b60008054906101000a900473ffffffffffffffffffffffffffffffffffffffff1673ffffffffffffffffffffffffffffffffffffffff163373ffffffffffffffffffffffffffffffffffffffff161461024b576040517f08c379a00000000000000000000000000000000000000000000000000000000081526004016102429061069c565b60405180910390fd5b8060038190555050565b6000804287600001602081019061026c91906106bc565b88806020019061027c91906106f8565b60405160200161028f9493929190610803565b6040516020818303038152906040529050600160009054906101000a900473ffffffffffffffffffffffffffffffffffffffff1673ffffffffffffffffffffffffffffffffffffffff1663d0e30db0346040518263ffffffff1660e01b81526004016000604051808303818588803b15801561030a57600080fd5b505af115801561031e573d6000803e3d6000fd5b50505050506000818051906020012090507f53a45f0f2126b4e4d1a8ead3146917aec27b8c8b31563306fefd7053575b19f8818a8a8a8a8a8a60405161036a9796959493929190610983565b60405180910390a180925050509695505050505050565b6000600454905090565b60008054906101000a900473ffffffffffffffffffffffffffffffffffffffff1673ffffffffffffffffffffffffffffffffffffffff163373ffffffffffffffffffffffffffffffffffffffff1614610419576040517f08c379a00000000000000000000000000000000000000000000000000000000081526004016104109061069c565b60405180910390fd5b8060028190555050565b600080fd5b600080fd5b6000819050919050565b6104408161042d565b811461044b57600080fd5b50565b60008135905061045d81610437565b92915050565b60006020828403121561047957610478610423565b5b60006104878482850161044e565b91505092915050565b600080fd5b6000604082840312156104ab576104aa610490565b5b81905092915050565b600073ffffffffffffffffffffffffffffffffffffffff82169050919050565b60006104df826104b4565b9050919050565b6104ef816104d4565b81146104fa57600080fd5b50565b60008135905061050c816104e6565b92915050565b60008060008060008060c0878903121561052f5761052e610423565b5b600061053d89828a0161044e565b965050602087013567ffffffffffffffff81111561055e5761055d610428565b5b61056a89828a01610495565b955050604061057b89828a0161044e565b945050606061058c89828a0161044e565b935050608061059d89828a016104fd565b92505060a06105ae89828a0161044e565b9150509295509295509295565b6000819050919050565b6105ce816105bb565b82525050565b60006020820190506105e960008301846105c5565b92915050565b6105f88161042d565b82525050565b600060208201905061061360008301846105ef565b92915050565b600082825260208201905092915050565b7f4f6e6c792061646d696e2063616e2063616c6c20746869732066756e6374696f60008201527f6e00000000000000000000000000000000000000000000000000000000000000602082015250565b6000610686602183610619565b91506106918261062a565b604082019050919050565b600060208201905081810360008301526106b581610679565b9050919050565b6000602082840312156106d2576106d1610423565b5b60006106e0848285016104fd565b91505092915050565b600080fd5b600080fd5b600080fd5b60008083356001602003843603038112610715576107146106e9565b5b80840192508235915067ffffffffffffffff821115610737576107366106ee565b5b602083019250600182023603831315610753576107526106f3565b5b509250929050565b6000819050919050565b6107766107718261042d565b61075b565b82525050565b60008160601b9050919050565b60006107948261077c565b9050919050565b60006107a682610789565b9050919050565b6107be6107b9826104d4565b61079b565b82525050565b600081905092915050565b82818337600083830152505050565b60006107ea83856107c4565b93506107f78385846107cf565b82840190509392505050565b600061080f8287610765565b60208201915061081f82866107ad565b6014820191506108308284866107de565b915081905095945050505050565b600061084d60208401846104fd565b905092915050565b61085e816104d4565b82525050565b600080fd5b600080fd5b600080fd5b600080833560016020038436030381126108905761088f61086e565b5b83810192508235915060208301925067ffffffffffffffff8211156108b8576108b7610864565b5b6001820236038313156108ce576108cd610869565b5b509250929050565b600082825260208201905092915050565b6000601f19601f8301169050919050565b600061090483856108d6565b93506109118385846107cf565b61091a836108e7565b840190509392505050565b600060408301610938600084018461083e565b6109456000860182610855565b506109536020840184610873565b85830360208701526109668382846108f8565b925050508091505092915050565b61097d816104d4565b82525050565b600060e082019050610998600083018a6105c5565b6109a560208301896105ef565b81810360408301526109b78188610925565b90506109c660608301876105ef565b6109d360808301866105ef565b6109e060a0830185610974565b6109ed60c08301846105ef565b9897505050505050505056fea2646970667358221220518a61a5c7e701cf152cd6fbc51e617046b93db2badbb9e520375a29c323bcd264736f6c63430008130033",
  "linkReferences": {},
  "deployedLinkReferences": {}
}