{
  "_format": "hh-sol-artifact-1",
  "contractName": "Messaging",
  "sourceName": "contracts/client/Messaging.sol",
  "abi": [
    {
      "inputs": [
        {
          "internalType": "address",
          "name": "_onChainContract",
          "type": "address"
        },
        {
          "internalType": "address",
          "name": "_nftAddress",
          "type": "address"
        },
        {
          "internalType": "address",
          "name": "_gameAddress",
          "type": "address"
        }
      ],
      "stateMutability": "nonpayable",
      "type": "constructor"
    },
    {
      "inputs": [
        {
          "internalType": "uint64",
          "name": "_targetChainId",
          "type": "uint64"
        },
        {
          "internalType": "address",
          "name": "_receiverAddress",
          "type": "address"
        },
        {
          "internalType": "bytes32",
          "name": "gameId",
          "type": "bytes32"
        },
        {
          "internalType": "address",
          "name": "buyer",
          "type": "address"
        },
        {
          "internalType": "uint256",
          "name": "gamePrice",
          "type": "uint256"
        },
        {
          "internalType": "uint256",
          "name": "gasPrice",
          "type": "uint256"
        }
      ],
      "name": "buyGame",
      "outputs": [
        {
          "internalType": "bytes32",
          "name": "",
          "type": "bytes32"
        }
      ],
      "stateMutability": "payable",
      "type": "function"
    },
    {
      "inputs": [
        {
          "internalType": "uint64",
          "name": "_targetChainId",
          "type": "uint64"
        },
        {
          "internalType": "address",
          "name": "_receiverAddress",
          "type": "address"
        },
        {
          "internalType": "bytes32",
          "name": "gameId",
          "type": "bytes32"
        },
        {
          "internalType": "uint256",
          "name": "tokenId",
          "type": "uint256"
        },
        {
          "internalType": "address",
          "name": "buyer",
          "type": "address"
        },
        {
          "internalType": "uint256",
          "name": "nftPrice",
          "type": "uint256"
        },
        {
          "internalType": "uint256",
          "name": "gasPrice",
          "type": "uint256"
        }
      ],
      "name": "buyNFT",
      "outputs": [
        {
          "internalType": "bytes32",
          "name": "",
          "type": "bytes32"
        }
      ],
      "stateMutability": "payable",
      "type": "function"
    },
    {
      "inputs": [
        {
          "internalType": "uint64",
          "name": "_targetChainId",
          "type": "uint64"
        },
        {
          "internalType": "address",
          "name": "_receiverAddress",
          "type": "address"
        },
        {
          "components": [
            {
              "internalType": "bytes32",
              "name": "gameId",
              "type": "bytes32"
            },
            {
              "internalType": "address",
              "name": "gameOwner",
              "type": "address"
            },
            {
              "internalType": "string",
              "name": "gameName",
              "type": "string"
            },
            {
              "internalType": "string",
              "name": "nftName",
              "type": "string"
            },
            {
              "internalType": "string",
              "name": "nftSymbol",
              "type": "string"
            },
            {
              "internalType": "uint256",
              "name": "price",
              "type": "uint256"
            },
            {
              "internalType": "string",
              "name": "gameUrl",
              "type": "string"
            },
            {
              "internalType": "bytes32",
              "name": "gameAssets",
              "type": "bytes32"
            },
            {
              "internalType": "uint256",
              "name": "timestamp",
              "type": "uint256"
            }
          ],
          "internalType": "struct GameLibrary.Game",
          "name": "newGame",
          "type": "tuple"
        },
        {
          "internalType": "uint256",
          "name": "gasPrice",
          "type": "uint256"
        }
      ],
      "name": "createGame",
      "outputs": [
        {
          "internalType": "bytes32",
          "name": "",
          "type": "bytes32"
        }
      ],
      "stateMutability": "payable",
      "type": "function"
    },
    {
      "inputs": [],
      "name": "getFee",
      "outputs": [
        {
          "internalType": "uint256",
          "name": "",
          "type": "uint256"
        }
      ],
      "stateMutability": "view",
      "type": "function"
    },
    {
      "inputs": [
        {
          "internalType": "uint64",
          "name": "_targetChainId",
          "type": "uint64"
        },
        {
          "internalType": "address",
          "name": "_receiverAddress",
          "type": "address"
        },
        {
          "internalType": "bytes32",
          "name": "gameId",
          "type": "bytes32"
        },
        {
          "internalType": "address",
          "name": "to",
          "type": "address"
        },
        {
          "internalType": "bytes32",
          "name": "storekey",
          "type": "bytes32"
        },
        {
          "internalType": "uint256",
          "name": "price",
          "type": "uint256"
        },
        {
          "internalType": "uint256",
          "name": "gasPrice",
          "type": "uint256"
        }
      ],
      "name": "mintNFT",
      "outputs": [
        {
          "internalType": "bytes32",
          "name": "",
          "type": "bytes32"
        }
      ],
      "stateMutability": "payable",
      "type": "function"
    },
    {
      "inputs": [
        {
          "internalType": "uint64",
          "name": "_targetChainId",
          "type": "uint64"
        },
        {
          "internalType": "address",
          "name": "_receiverAddress",
          "type": "address"
        },
        {
          "internalType": "bytes32",
          "name": "gameId",
          "type": "bytes32"
        },
        {
          "internalType": "uint256",
          "name": "tokenId",
          "type": "uint256"
        },
        {
          "internalType": "address",
          "name": "to",
          "type": "address"
        },
        {
          "internalType": "uint256",
          "name": "price",
          "type": "uint256"
        },
        {
          "internalType": "uint256",
          "name": "gasPrice",
          "type": "uint256"
        }
      ],
      "name": "teleportNFT",
      "outputs": [
        {
          "internalType": "bytes32",
          "name": "",
          "type": "bytes32"
        }
      ],
      "stateMutability": "payable",
      "type": "function"
    }
  ],
  "bytecode": "0x60806040523480156200001157600080fd5b506040516200167b3803806200167b83398181016040528101906200003791906200016c565b826000806101000a81548173ffffffffffffffffffffffffffffffffffffffff021916908373ffffffffffffffffffffffffffffffffffffffff16021790555081600160006101000a81548173ffffffffffffffffffffffffffffffffffffffff021916908373ffffffffffffffffffffffffffffffffffffffff16021790555080600260006101000a81548173ffffffffffffffffffffffffffffffffffffffff021916908373ffffffffffffffffffffffffffffffffffffffff160217905550505050620001c8565b600080fd5b600073ffffffffffffffffffffffffffffffffffffffff82169050919050565b6000620001348262000107565b9050919050565b620001468162000127565b81146200015257600080fd5b50565b60008151905062000166816200013b565b92915050565b60008060006060848603121562000188576200018762000102565b5b6000620001988682870162000155565b9350506020620001ab8682870162000155565b9250506040620001be8682870162000155565b9150509250925092565b6114a380620001d86000396000f3fe6080604052600436106100555760003560e01c80631d665bc91461005a5780632d106c0d1461008a5780633551fbf0146100ba57806391069f99146100ea578063a97cc0081461011a578063ced72f871461014a575b600080fd5b610074600480360381019061006f9190610943565b610175565b60405161008191906109df565b60405180910390f35b6100a4600480360381019061009f9190610c9a565b610257565b6040516100b191906109df565b60405180910390f35b6100d460048036038101906100cf9190610d1d565b6102f3565b6040516100e191906109df565b60405180910390f35b61010460048036038101906100ff9190610dbf565b610395565b60405161011191906109df565b60405180910390f35b610134600480360381019061012f9190610d1d565b61043a565b60405161014191906109df565b60405180910390f35b34801561015657600080fd5b5061015f6105ca565b60405161016c9190610e70565b60405180910390f35b60008063c3cea63d60e01b8686604051602401610193929190610e9a565b604051602081830303815290604052907bffffffffffffffffffffffffffffffffffffffffffffffffffffffff19166020820180517bffffffffffffffffffffffffffffffffffffffffffffffffffffffff8381831617835250505050905083341015610235576040517f08c379a000000000000000000000000000000000000000000000000000000000815260040161022c90610f20565b60405180910390fd5b60006102468989843489338a610661565b905080925050509695505050505050565b600080636fdb3ef560e01b8460405160240161027391906110c6565b604051602081830303815290604052907bffffffffffffffffffffffffffffffffffffffffffffffffffffffff19166020820180517bffffffffffffffffffffffffffffffffffffffffffffffffffffffff8381831617835250505050905060006102e4878784346000338a610661565b90508092505050949350505050565b600080638b116e1e60e01b878787604051602401610313939291906110e8565b604051602081830303815290604052907bffffffffffffffffffffffffffffffffffffffffffffffffffffffff19166020820180517bffffffffffffffffffffffffffffffffffffffffffffffffffffffff8381831617835250505050905060006103838a8a843489338a610661565b90508092505050979650505050505050565b60008063199add6d60e01b868887876040516024016103b7949392919061111f565b604051602081830303815290604052907bffffffffffffffffffffffffffffffffffffffffffffffffffffffff19166020820180517bffffffffffffffffffffffffffffffffffffffffffffffffffffffff8381831617835250505050905060006104288a8a84346000338a610661565b90508092505050979650505050505050565b6000806000600160009054906101000a900473ffffffffffffffffffffffffffffffffffffffff1673ffffffffffffffffffffffffffffffffffffffff16638f4949718989336040518463ffffffff1660e01b815260040161049e939291906110e8565b60408051808303816000875af11580156104bc573d6000803e3d6000fd5b505050506040513d601f19601f820116820180604052508101906104e091906111b1565b9150915081610524576040517f08c379a000000000000000000000000000000000000000000000000000000000815260040161051b9061123d565b60405180910390fd5b600063199add6d60e01b878a8489604051602401610545949392919061111f565b604051602081830303815290604052907bffffffffffffffffffffffffffffffffffffffffffffffffffffffff19166020820180517bffffffffffffffffffffffffffffffffffffffffffffffffffffffff8381831617835250505050905060006105b68c8c84346000338c610661565b905080945050505050979650505050505050565b60008060009054906101000a900473ffffffffffffffffffffffffffffffffffffffff1673ffffffffffffffffffffffffffffffffffffffff1663ced72f876040518163ffffffff1660e01b8152600401602060405180830381865afa158015610638573d6000803e3d6000fd5b505050506040513d601f19601f8201168201806040525081019061065c9190611272565b905090565b60008060405180604001604052808973ffffffffffffffffffffffffffffffffffffffff16815260200188815250905060008060009054906101000a900473ffffffffffffffffffffffffffffffffffffffff1673ffffffffffffffffffffffffffffffffffffffff1663ced72f876040518163ffffffff1660e01b8152600401602060405180830381865afa1580156106ff573d6000803e3d6000fd5b505050506040513d601f19601f820116820180604052508101906107239190611272565b905086811115610768576040517f08c379a000000000000000000000000000000000000000000000000000000000815260040161075f906112eb565b60405180910390fd5b60008060009054906101000a900473ffffffffffffffffffffffffffffffffffffffff1673ffffffffffffffffffffffffffffffffffffffff16637f36bbda898d868c8c8c8c6040518863ffffffff1660e01b81526004016107cf969594939291906113d8565b60206040518083038185885af11580156107ed573d6000803e3d6000fd5b50505050506040513d601f19601f820116820180604052508101906108129190611440565b9050809350505050979650505050505050565b6000604051905090565b600080fd5b600080fd5b600067ffffffffffffffff82169050919050565b61085681610839565b811461086157600080fd5b50565b6000813590506108738161084d565b92915050565b600073ffffffffffffffffffffffffffffffffffffffff82169050919050565b60006108a482610879565b9050919050565b6108b481610899565b81146108bf57600080fd5b50565b6000813590506108d1816108ab565b92915050565b6000819050919050565b6108ea816108d7565b81146108f557600080fd5b50565b600081359050610907816108e1565b92915050565b6000819050919050565b6109208161090d565b811461092b57600080fd5b50565b60008135905061093d81610917565b92915050565b60008060008060008060c087890312156109605761095f61082f565b5b600061096e89828a01610864565b965050602061097f89828a016108c2565b955050604061099089828a016108f8565b94505060606109a189828a016108c2565b93505060806109b289828a0161092e565b92505060a06109c389828a0161092e565b9150509295509295509295565b6109d9816108d7565b82525050565b60006020820190506109f460008301846109d0565b92915050565b600080fd5b6000601f19601f8301169050919050565b7f4e487b7100000000000000000000000000000000000000000000000000000000600052604160045260246000fd5b610a48826109ff565b810181811067ffffffffffffffff82111715610a6757610a66610a10565b5b80604052505050565b6000610a7a610825565b9050610a868282610a3f565b919050565b600080fd5b600080fd5b600080fd5b600067ffffffffffffffff821115610ab557610ab4610a10565b5b610abe826109ff565b9050602081019050919050565b82818337600083830152505050565b6000610aed610ae884610a9a565b610a70565b905082815260208101848484011115610b0957610b08610a95565b5b610b14848285610acb565b509392505050565b600082601f830112610b3157610b30610a90565b5b8135610b41848260208601610ada565b91505092915050565b60006101208284031215610b6157610b606109fa565b5b610b6c610120610a70565b90506000610b7c848285016108f8565b6000830152506020610b90848285016108c2565b602083015250604082013567ffffffffffffffff811115610bb457610bb3610a8b565b5b610bc084828501610b1c565b604083015250606082013567ffffffffffffffff811115610be457610be3610a8b565b5b610bf084828501610b1c565b606083015250608082013567ffffffffffffffff811115610c1457610c13610a8b565b5b610c2084828501610b1c565b60808301525060a0610c348482850161092e565b60a08301525060c082013567ffffffffffffffff811115610c5857610c57610a8b565b5b610c6484828501610b1c565b60c08301525060e0610c78848285016108f8565b60e083015250610100610c8d8482850161092e565b6101008301525092915050565b60008060008060808587031215610cb457610cb361082f565b5b6000610cc287828801610864565b9450506020610cd3878288016108c2565b935050604085013567ffffffffffffffff811115610cf457610cf3610834565b5b610d0087828801610b4a565b9250506060610d118782880161092e565b91505092959194509250565b600080600080600080600060e0888a031215610d3c57610d3b61082f565b5b6000610d4a8a828b01610864565b9750506020610d5b8a828b016108c2565b9650506040610d6c8a828b016108f8565b9550506060610d7d8a828b0161092e565b9450506080610d8e8a828b016108c2565b93505060a0610d9f8a828b0161092e565b92505060c0610db08a828b0161092e565b91505092959891949750929550565b600080600080600080600060e0888a031215610dde57610ddd61082f565b5b6000610dec8a828b01610864565b9750506020610dfd8a828b016108c2565b9650506040610e0e8a828b016108f8565b9550506060610e1f8a828b016108c2565b9450506080610e308a828b016108f8565b93505060a0610e418a828b0161092e565b92505060c0610e528a828b0161092e565b91505092959891949750929550565b610e6a8161090d565b82525050565b6000602082019050610e856000830184610e61565b92915050565b610e9481610899565b82525050565b6000604082019050610eaf60008301856109d0565b610ebc6020830184610e8b565b9392505050565b600082825260208201905092915050565b7f506179207468652072657175697265642067616d652070726963650000000000600082015250565b6000610f0a601b83610ec3565b9150610f1582610ed4565b602082019050919050565b60006020820190508181036000830152610f3981610efd565b9050919050565b610f49816108d7565b82525050565b610f5881610899565b82525050565b600081519050919050565b600082825260208201905092915050565b60005b83811015610f98578082015181840152602081019050610f7d565b60008484015250505050565b6000610faf82610f5e565b610fb98185610f69565b9350610fc9818560208601610f7a565b610fd2816109ff565b840191505092915050565b610fe68161090d565b82525050565b6000610120830160008301516110056000860182610f40565b5060208301516110186020860182610f4f565b50604083015184820360408601526110308282610fa4565b9150506060830151848203606086015261104a8282610fa4565b915050608083015184820360808601526110648282610fa4565b91505060a083015161107960a0860182610fdd565b5060c083015184820360c08601526110918282610fa4565b91505060e08301516110a660e0860182610f40565b506101008301516110bb610100860182610fdd565b508091505092915050565b600060208201905081810360008301526110e08184610fec565b905092915050565b60006060820190506110fd60008301866109d0565b61110a6020830185610e61565b6111176040830184610e8b565b949350505050565b60006080820190506111346000830187610e8b565b61114160208301866109d0565b61114e60408301856109d0565b61115b6060830184610e61565b95945050505050565b60008115159050919050565b61117981611164565b811461118457600080fd5b50565b60008151905061119681611170565b92915050565b6000815190506111ab816108e1565b92915050565b600080604083850312156111c8576111c761082f565b5b60006111d685828601611187565b92505060206111e78582860161119c565b9150509250929050565b7f4275726e696e672074686520746f6b656e206661696c65640000000000000000600082015250565b6000611227601883610ec3565b9150611232826111f1565b602082019050919050565b600060208201905081810360008301526112568161121a565b9050919050565b60008151905061126c81610917565b92915050565b6000602082840312156112885761128761082f565b5b60006112968482850161125d565b91505092915050565b7f5061792074686520636f7272656374206e657477726f6b206665650000000000600082015250565b60006112d5601b83610ec3565b91506112e08261129f565b602082019050919050565b60006020820190508181036000830152611304816112c8565b9050919050565b6000819050919050565b600061133061132b61132684610839565b61130b565b61090d565b9050919050565b61134081611315565b82525050565b600081519050919050565b600082825260208201905092915050565b600061136d82611346565b6113778185611351565b9350611387818560208601610f7a565b611390816109ff565b840191505092915050565b60006040830160008301516113b36000860182610f4f565b50602083015184820360208601526113cb8282611362565b9150508091505092915050565b600060c0820190506113ed6000830189611337565b81810360208301526113ff818861139b565b905061140e6040830187610e61565b61141b6060830186610e61565b6114286080830185610e8b565b61143560a0830184610e61565b979650505050505050565b6000602082840312156114565761145561082f565b5b60006114648482850161119c565b9150509291505056fea2646970667358221220cea51815009d975cecb4a4f64071f40528acc230c26410bac541e2f62a6a8ec964736f6c63430008130033",
  "linkReferences": {},
  "deployedLinkReferences": {}
}