{
  "_format": "hh-sol-artifact-1",
  "contractName": "Games",
  "sourceName": "contracts/client/Games.sol",
  "abi": [
    {
      "anonymous": false,
      "inputs": [
        {
          "indexed": false,
          "internalType": "bytes32",
          "name": "gameId",
          "type": "bytes32"
        },
        {
          "indexed": false,
          "internalType": "string",
          "name": "gameName",
          "type": "string"
        },
        {
          "indexed": false,
          "internalType": "address",
          "name": "gameOwner",
          "type": "address"
        }
      ],
      "name": "GameAdded",
      "type": "event"
    },
    {
      "anonymous": false,
      "inputs": [
        {
          "indexed": false,
          "internalType": "bytes32",
          "name": "gameId",
          "type": "bytes32"
        },
        {
          "indexed": false,
          "internalType": "address",
          "name": "buyer",
          "type": "address"
        }
      ],
      "name": "GamePurchased",
      "type": "event"
    },
    {
      "inputs": [
        {
          "components": [
            {
              "internalType": "bytes32",
              "name": "gameId",
              "type": "bytes32"
            },
            {
              "internalType": "address",
              "name": "gameOwner",
              "type": "address"
            },
            {
              "internalType": "string",
              "name": "gameName",
              "type": "string"
            },
            {
              "internalType": "string",
              "name": "nftName",
              "type": "string"
            },
            {
              "internalType": "string",
              "name": "nftSymbol",
              "type": "string"
            },
            {
              "internalType": "uint256",
              "name": "price",
              "type": "uint256"
            },
            {
              "internalType": "string",
              "name": "gameUrl",
              "type": "string"
            },
            {
              "internalType": "bytes32",
              "name": "gameAssets",
              "type": "bytes32"
            },
            {
              "internalType": "uint256",
              "name": "timestamp",
              "type": "uint256"
            }
          ],
          "internalType": "struct GameLibrary.Game",
          "name": "newGame",
          "type": "tuple"
        }
      ],
      "name": "addGame",
      "outputs": [],
      "stateMutability": "nonpayable",
      "type": "function"
    },
    {
      "inputs": [
        {
          "internalType": "bytes32",
          "name": "gameId",
          "type": "bytes32"
        },
        {
          "internalType": "address",
          "name": "buyer",
          "type": "address"
        }
      ],
      "name": "buyGame",
      "outputs": [],
      "stateMutability": "payable",
      "type": "function"
    },
    {
      "inputs": [
        {
          "internalType": "uint256",
          "name": "",
          "type": "uint256"
        }
      ],
      "name": "gameIds",
      "outputs": [
        {
          "internalType": "bytes32",
          "name": "",
          "type": "bytes32"
        }
      ],
      "stateMutability": "view",
      "type": "function"
    },
    {
      "inputs": [
        {
          "internalType": "bytes32",
          "name": "",
          "type": "bytes32"
        },
        {
          "internalType": "address",
          "name": "",
          "type": "address"
        }
      ],
      "name": "gamePurchasers",
      "outputs": [
        {
          "internalType": "bool",
          "name": "",
          "type": "bool"
        }
      ],
      "stateMutability": "view",
      "type": "function"
    },
    {
      "inputs": [
        {
          "internalType": "bytes32",
          "name": "",
          "type": "bytes32"
        }
      ],
      "name": "games",
      "outputs": [
        {
          "internalType": "bytes32",
          "name": "gameId",
          "type": "bytes32"
        },
        {
          "internalType": "address",
          "name": "gameOwner",
          "type": "address"
        },
        {
          "internalType": "string",
          "name": "gameName",
          "type": "string"
        },
        {
          "internalType": "string",
          "name": "nftName",
          "type": "string"
        },
        {
          "internalType": "string",
          "name": "nftSymbol",
          "type": "string"
        },
        {
          "internalType": "uint256",
          "name": "price",
          "type": "uint256"
        },
        {
          "internalType": "string",
          "name": "gameUrl",
          "type": "string"
        },
        {
          "internalType": "bytes32",
          "name": "gameAssets",
          "type": "bytes32"
        },
        {
          "internalType": "uint256",
          "name": "timestamp",
          "type": "uint256"
        }
      ],
      "stateMutability": "view",
      "type": "function"
    },
    {
      "inputs": [],
      "name": "getAllGames",
      "outputs": [
        {
          "components": [
            {
              "internalType": "bytes32",
              "name": "gameId",
              "type": "bytes32"
            },
            {
              "internalType": "address",
              "name": "gameOwner",
              "type": "address"
            },
            {
              "internalType": "string",
              "name": "gameName",
              "type": "string"
            },
            {
              "internalType": "string",
              "name": "nftName",
              "type": "string"
            },
            {
              "internalType": "string",
              "name": "nftSymbol",
              "type": "string"
            },
            {
              "internalType": "uint256",
              "name": "price",
              "type": "uint256"
            },
            {
              "internalType": "string",
              "name": "gameUrl",
              "type": "string"
            },
            {
              "internalType": "bytes32",
              "name": "gameAssets",
              "type": "bytes32"
            },
            {
              "internalType": "uint256",
              "name": "timestamp",
              "type": "uint256"
            }
          ],
          "internalType": "struct GameLibrary.Game[]",
          "name": "",
          "type": "tuple[]"
        }
      ],
      "stateMutability": "view",
      "type": "function"
    },
    {
      "inputs": [
        {
          "internalType": "uint256",
          "name": "nonce",
          "type": "uint256"
        }
      ],
      "name": "getGameId",
      "outputs": [
        {
          "internalType": "bytes32",
          "name": "",
          "type": "bytes32"
        }
      ],
      "stateMutability": "view",
      "type": "function"
    },
    {
      "inputs": [],
      "name": "getPurchasedGames",
      "outputs": [
        {
          "components": [
            {
              "internalType": "bytes32",
              "name": "gameId",
              "type": "bytes32"
            },
            {
              "internalType": "address",
              "name": "gameOwner",
              "type": "address"
            },
            {
              "internalType": "string",
              "name": "gameName",
              "type": "string"
            },
            {
              "internalType": "string",
              "name": "nftName",
              "type": "string"
            },
            {
              "internalType": "string",
              "name": "nftSymbol",
              "type": "string"
            },
            {
              "internalType": "uint256",
              "name": "price",
              "type": "uint256"
            },
            {
              "internalType": "string",
              "name": "gameUrl",
              "type": "string"
            },
            {
              "internalType": "bytes32",
              "name": "gameAssets",
              "type": "bytes32"
            },
            {
              "internalType": "uint256",
              "name": "timestamp",
              "type": "uint256"
            }
          ],
          "internalType": "struct GameLibrary.Game[]",
          "name": "",
          "type": "tuple[]"
        }
      ],
      "stateMutability": "view",
      "type": "function"
    },
    {
      "inputs": [
        {
          "internalType": "bytes32",
          "name": "gameId",
          "type": "bytes32"
        },
        {
          "internalType": "address",
          "name": "buyer",
          "type": "address"
        }
      ],
      "name": "hasPurchased",
      "outputs": [
        {
          "internalType": "bool",
          "name": "",
          "type": "bool"
        }
      ],
      "stateMutability": "view",
      "type": "function"
    }
  ],
  "bytecode": "0x608060405234801561001057600080fd5b506120ff806100206000396000f3fe6080604052600436106100865760003560e01c8063c3cea63d11610059578063c3cea63d14610159578063d82c13f014610175578063db1c45f9146101b2578063e7dc2096146101dd578063f579f8821461021a57610086565b80632d139a1b1461008b578063534ab7cb146100c85780636fdb3ef5146101055780638c35c46a1461012e575b600080fd5b34801561009757600080fd5b506100b260048036038101906100ad919061134b565b61025f565b6040516100bf91906113a6565b60405180910390f35b3480156100d457600080fd5b506100ef60048036038101906100ea91906113f7565b6102c7565b6040516100fc9190611433565b60405180910390f35b34801561011157600080fd5b5061012c600480360381019061012791906116ee565b6102f9565b005b34801561013a57600080fd5b5061014361045e565b604051610150919061197f565b60405180910390f35b610173600480360381019061016e919061134b565b610949565b005b34801561018157600080fd5b5061019c600480360381019061019791906113f7565b610bb1565b6040516101a99190611433565b60405180910390f35b3480156101be57600080fd5b506101c7610bd5565b6040516101d4919061197f565b60405180910390f35b3480156101e957600080fd5b5061020460048036038101906101ff919061134b565b610f7e565b60405161021191906113a6565b60405180910390f35b34801561022657600080fd5b50610241600480360381019061023c91906119a1565b610fad565b60405161025699989796959493929190611a36565b60405180910390f35b60006002600084815260200190815260200160002060008373ffffffffffffffffffffffffffffffffffffffff1673ffffffffffffffffffffffffffffffffffffffff16815260200190815260200160002060009054906101000a900460ff16905092915050565b600033826040516020016102dc929190611b48565b604051602081830303815290604052805190602001209050919050565b42816101000181815250508060016000836000015181526020019081526020016000206000820151816000015560208201518160010160006101000a81548173ffffffffffffffffffffffffffffffffffffffff021916908373ffffffffffffffffffffffffffffffffffffffff16021790555060408201518160020190816103829190611d80565b5060608201518160030190816103989190611d80565b5060808201518160040190816103ae9190611d80565b5060a0820151816005015560c08201518160060190816103ce9190611d80565b5060e0820151816007015561010082015181600801559050506000816000015190806001815401808255809150506001900390600052602060002001600090919091909150557f98b2b1a1c0f0daf02a05e6acd85b7df64f295a9c277b142dc4cb792df730be1581600001518260400151836020015160405161045393929190611e52565b60405180910390a150565b60606000805b600080549050811015610513576002600080838154811061048857610487611e90565b5b9060005260206000200154815260200190815260200160002060003373ffffffffffffffffffffffffffffffffffffffff1673ffffffffffffffffffffffffffffffffffffffff16815260200190815260200160002060009054906101000a900460ff16156105005781806104fc90611eee565b9250505b808061050b90611eee565b915050610464565b5060008167ffffffffffffffff8111156105305761052f611464565b5b60405190808252806020026020018201604052801561056957816020015b61055661123b565b81526020019060019003908161054e5790505b5090506000805b60008054905081101561093f576002600080838154811061059457610593611e90565b5b9060005260206000200154815260200190815260200160002060003373ffffffffffffffffffffffffffffffffffffffff1673ffffffffffffffffffffffffffffffffffffffff16815260200190815260200160002060009054906101000a900460ff161561092c576001600080838154811061061457610613611e90565b5b9060005260206000200154815260200190815260200160002060405180610120016040529081600082015481526020016001820160009054906101000a900473ffffffffffffffffffffffffffffffffffffffff1673ffffffffffffffffffffffffffffffffffffffff1673ffffffffffffffffffffffffffffffffffffffff1681526020016002820180546106a990611ba3565b80601f01602080910402602001604051908101604052809291908181526020018280546106d590611ba3565b80156107225780601f106106f757610100808354040283529160200191610722565b820191906000526020600020905b81548152906001019060200180831161070557829003601f168201915b5050505050815260200160038201805461073b90611ba3565b80601f016020809104026020016040519081016040528092919081815260200182805461076790611ba3565b80156107b45780601f10610789576101008083540402835291602001916107b4565b820191906000526020600020905b81548152906001019060200180831161079757829003601f168201915b505050505081526020016004820180546107cd90611ba3565b80601f01602080910402602001604051908101604052809291908181526020018280546107f990611ba3565b80156108465780601f1061081b57610100808354040283529160200191610846565b820191906000526020600020905b81548152906001019060200180831161082957829003601f168201915b505050505081526020016005820154815260200160068201805461086990611ba3565b80601f016020809104026020016040519081016040528092919081815260200182805461089590611ba3565b80156108e25780601f106108b7576101008083540402835291602001916108e2565b820191906000526020600020905b8154815290600101906020018083116108c557829003601f168201915b505050505081526020016007820154815260200160088201548152505083838151811061091257610911611e90565b5b6020026020010181905250818061092890611eee565b9250505b808061093790611eee565b915050610570565b5081935050505090565b6000801b6001600084815260200190815260200160002060000154036109a4576040517f08c379a000000000000000000000000000000000000000000000000000000000815260040161099b90611f82565b60405180910390fd5b600060016000848152602001908152602001600020905080600501543414610a01576040517f08c379a00000000000000000000000000000000000000000000000000000000081526004016109f890611fee565b60405180910390fd5b6002600084815260200190815260200160002060008373ffffffffffffffffffffffffffffffffffffffff1673ffffffffffffffffffffffffffffffffffffffff16815260200190815260200160002060009054906101000a900460ff1615610a9f576040517f08c379a0000000000000000000000000000000000000000000000000000000008152600401610a9690612080565b60405180910390fd5b60016002600085815260200190815260200160002060008473ffffffffffffffffffffffffffffffffffffffff1673ffffffffffffffffffffffffffffffffffffffff16815260200190815260200160002060006101000a81548160ff0219169083151502179055508060010160009054906101000a900473ffffffffffffffffffffffffffffffffffffffff1673ffffffffffffffffffffffffffffffffffffffff166108fc349081150290604051600060405180830381858888f19350505050158015610b72573d6000803e3d6000fd5b507fa5009da42b9a668ff640f8e4cbd59c9cd0a0d36ac11fcee9c88563ae2ed5aa708383604051610ba49291906120a0565b60405180910390a1505050565b60008181548110610bc157600080fd5b906000526020600020016000915090505481565b60606000808054905067ffffffffffffffff811115610bf757610bf6611464565b5b604051908082528060200260200182016040528015610c3057816020015b610c1d61123b565b815260200190600190039081610c155790505b50905060005b600080549050811015610f765760016000808381548110610c5a57610c59611e90565b5b9060005260206000200154815260200190815260200160002060405180610120016040529081600082015481526020016001820160009054906101000a900473ffffffffffffffffffffffffffffffffffffffff1673ffffffffffffffffffffffffffffffffffffffff1673ffffffffffffffffffffffffffffffffffffffff168152602001600282018054610cef90611ba3565b80601f0160208091040260200160405190810160405280929190818152602001828054610d1b90611ba3565b8015610d685780601f10610d3d57610100808354040283529160200191610d68565b820191906000526020600020905b815481529060010190602001808311610d4b57829003601f168201915b50505050508152602001600382018054610d8190611ba3565b80601f0160208091040260200160405190810160405280929190818152602001828054610dad90611ba3565b8015610dfa5780601f10610dcf57610100808354040283529160200191610dfa565b820191906000526020600020905b815481529060010190602001808311610ddd57829003601f168201915b50505050508152602001600482018054610e1390611ba3565b80601f0160208091040260200160405190810160405280929190818152602001828054610e3f90611ba3565b8015610e8c5780601f10610e6157610100808354040283529160200191610e8c565b820191906000526020600020905b815481529060010190602001808311610e6f57829003601f168201915b5050505050815260200160058201548152602001600682018054610eaf90611ba3565b80601f0160208091040260200160405190810160405280929190818152602001828054610edb90611ba3565b8015610f285780601f10610efd57610100808354040283529160200191610f28565b820191906000526020600020905b815481529060010190602001808311610f0b57829003601f168201915b5050505050815260200160078201548152602001600882015481525050828281518110610f5857610f57611e90565b5b60200260200101819052508080610f6e90611eee565b915050610c36565b508091505090565b60026020528160005260406000206020528060005260406000206000915091509054906101000a900460ff1681565b60016020528060005260406000206000915090508060000154908060010160009054906101000a900473ffffffffffffffffffffffffffffffffffffffff1690806002018054610ffc90611ba3565b80601f016020809104026020016040519081016040528092919081815260200182805461102890611ba3565b80156110755780601f1061104a57610100808354040283529160200191611075565b820191906000526020600020905b81548152906001019060200180831161105857829003601f168201915b50505050509080600301805461108a90611ba3565b80601f01602080910402602001604051908101604052809291908181526020018280546110b690611ba3565b80156111035780601f106110d857610100808354040283529160200191611103565b820191906000526020600020905b8154815290600101906020018083116110e657829003601f168201915b50505050509080600401805461111890611ba3565b80601f016020809104026020016040519081016040528092919081815260200182805461114490611ba3565b80156111915780601f1061116657610100808354040283529160200191611191565b820191906000526020600020905b81548152906001019060200180831161117457829003601f168201915b5050505050908060050154908060060180546111ac90611ba3565b80601f01602080910402602001604051908101604052809291908181526020018280546111d890611ba3565b80156112255780601f106111fa57610100808354040283529160200191611225565b820191906000526020600020905b81548152906001019060200180831161120857829003601f168201915b5050505050908060070154908060080154905089565b60405180610120016040528060008019168152602001600073ffffffffffffffffffffffffffffffffffffffff168152602001606081526020016060815260200160608152602001600081526020016060815260200160008019168152602001600081525090565b6000604051905090565b600080fd5b600080fd5b6000819050919050565b6112ca816112b7565b81146112d557600080fd5b50565b6000813590506112e7816112c1565b92915050565b600073ffffffffffffffffffffffffffffffffffffffff82169050919050565b6000611318826112ed565b9050919050565b6113288161130d565b811461133357600080fd5b50565b6000813590506113458161131f565b92915050565b60008060408385031215611362576113616112ad565b5b6000611370858286016112d8565b925050602061138185828601611336565b9150509250929050565b60008115159050919050565b6113a08161138b565b82525050565b60006020820190506113bb6000830184611397565b92915050565b6000819050919050565b6113d4816113c1565b81146113df57600080fd5b50565b6000813590506113f1816113cb565b92915050565b60006020828403121561140d5761140c6112ad565b5b600061141b848285016113e2565b91505092915050565b61142d816112b7565b82525050565b60006020820190506114486000830184611424565b92915050565b600080fd5b6000601f19601f8301169050919050565b7f4e487b7100000000000000000000000000000000000000000000000000000000600052604160045260246000fd5b61149c82611453565b810181811067ffffffffffffffff821117156114bb576114ba611464565b5b80604052505050565b60006114ce6112a3565b90506114da8282611493565b919050565b600080fd5b600080fd5b600080fd5b600067ffffffffffffffff82111561150957611508611464565b5b61151282611453565b9050602081019050919050565b82818337600083830152505050565b600061154161153c846114ee565b6114c4565b90508281526020810184848401111561155d5761155c6114e9565b5b61156884828561151f565b509392505050565b600082601f830112611585576115846114e4565b5b813561159584826020860161152e565b91505092915050565b600061012082840312156115b5576115b461144e565b5b6115c06101206114c4565b905060006115d0848285016112d8565b60008301525060206115e484828501611336565b602083015250604082013567ffffffffffffffff811115611608576116076114df565b5b61161484828501611570565b604083015250606082013567ffffffffffffffff811115611638576116376114df565b5b61164484828501611570565b606083015250608082013567ffffffffffffffff811115611668576116676114df565b5b61167484828501611570565b60808301525060a0611688848285016113e2565b60a08301525060c082013567ffffffffffffffff8111156116ac576116ab6114df565b5b6116b884828501611570565b60c08301525060e06116cc848285016112d8565b60e0830152506101006116e1848285016113e2565b6101008301525092915050565b600060208284031215611704576117036112ad565b5b600082013567ffffffffffffffff811115611722576117216112b2565b5b61172e8482850161159e565b91505092915050565b600081519050919050565b600082825260208201905092915050565b6000819050602082019050919050565b61176c816112b7565b82525050565b61177b8161130d565b82525050565b600081519050919050565b600082825260208201905092915050565b60005b838110156117bb5780820151818401526020810190506117a0565b60008484015250505050565b60006117d282611781565b6117dc818561178c565b93506117ec81856020860161179d565b6117f581611453565b840191505092915050565b611809816113c1565b82525050565b6000610120830160008301516118286000860182611763565b50602083015161183b6020860182611772565b506040830151848203604086015261185382826117c7565b9150506060830151848203606086015261186d82826117c7565b9150506080830151848203608086015261188782826117c7565b91505060a083015161189c60a0860182611800565b5060c083015184820360c08601526118b482826117c7565b91505060e08301516118c960e0860182611763565b506101008301516118de610100860182611800565b508091505092915050565b60006118f5838361180f565b905092915050565b6000602082019050919050565b600061191582611737565b61191f8185611742565b93508360208202850161193185611753565b8060005b8581101561196d578484038952815161194e85826118e9565b9450611959836118fd565b925060208a01995050600181019050611935565b50829750879550505050505092915050565b60006020820190508181036000830152611999818461190a565b905092915050565b6000602082840312156119b7576119b66112ad565b5b60006119c5848285016112d8565b91505092915050565b6119d78161130d565b82525050565b600082825260208201905092915050565b60006119f982611781565b611a0381856119dd565b9350611a1381856020860161179d565b611a1c81611453565b840191505092915050565b611a30816113c1565b82525050565b600061012082019050611a4c600083018c611424565b611a59602083018b6119ce565b8181036040830152611a6b818a6119ee565b90508181036060830152611a7f81896119ee565b90508181036080830152611a9381886119ee565b9050611aa260a0830187611a27565b81810360c0830152611ab481866119ee565b9050611ac360e0830185611424565b611ad1610100830184611a27565b9a9950505050505050505050565b60008160601b9050919050565b6000611af782611adf565b9050919050565b6000611b0982611aec565b9050919050565b611b21611b1c8261130d565b611afe565b82525050565b6000819050919050565b611b42611b3d826113c1565b611b27565b82525050565b6000611b548285611b10565b601482019150611b648284611b31565b6020820191508190509392505050565b7f4e487b7100000000000000000000000000000000000000000000000000000000600052602260045260246000fd5b60006002820490506001821680611bbb57607f821691505b602082108103611bce57611bcd611b74565b5b50919050565b60008190508160005260206000209050919050565b60006020601f8301049050919050565b600082821b905092915050565b600060088302611c367fffffffffffffffffffffffffffffffffffffffffffffffffffffffffffffffff82611bf9565b611c408683611bf9565b95508019841693508086168417925050509392505050565b6000819050919050565b6000611c7d611c78611c73846113c1565b611c58565b6113c1565b9050919050565b6000819050919050565b611c9783611c62565b611cab611ca382611c84565b848454611c06565b825550505050565b600090565b611cc0611cb3565b611ccb818484611c8e565b505050565b5b81811015611cef57611ce4600082611cb8565b600181019050611cd1565b5050565b601f821115611d3457611d0581611bd4565b611d0e84611be9565b81016020851015611d1d578190505b611d31611d2985611be9565b830182611cd0565b50505b505050565b600082821c905092915050565b6000611d5760001984600802611d39565b1980831691505092915050565b6000611d708383611d46565b9150826002028217905092915050565b611d8982611781565b67ffffffffffffffff811115611da257611da1611464565b5b611dac8254611ba3565b611db7828285611cf3565b600060209050601f831160018114611dea5760008415611dd8578287015190505b611de28582611d64565b865550611e4a565b601f198416611df886611bd4565b60005b82811015611e2057848901518255600182019150602085019450602081019050611dfb565b86831015611e3d5784890151611e39601f891682611d46565b8355505b6001600288020188555050505b505050505050565b6000606082019050611e676000830186611424565b8181036020830152611e7981856119ee565b9050611e8860408301846119ce565b949350505050565b7f4e487b7100000000000000000000000000000000000000000000000000000000600052603260045260246000fd5b7f4e487b7100000000000000000000000000000000000000000000000000000000600052601160045260246000fd5b6000611ef9826113c1565b91507fffffffffffffffffffffffffffffffffffffffffffffffffffffffffffffffff8203611f2b57611f2a611ebf565b5b600182019050919050565b7f496e76616c69642067616d652049440000000000000000000000000000000000600082015250565b6000611f6c600f836119dd565b9150611f7782611f36565b602082019050919050565b60006020820190508181036000830152611f9b81611f5f565b9050919050565b7f496e636f72726563742076616c75652073656e74000000000000000000000000600082015250565b6000611fd86014836119dd565b9150611fe382611fa2565b602082019050919050565b6000602082019050818103600083015261200781611fcb565b9050919050565b7f47616d6520616c7265616479207075726368617365642062792074686973206160008201527f6464726573730000000000000000000000000000000000000000000000000000602082015250565b600061206a6026836119dd565b91506120758261200e565b604082019050919050565b600060208201905081810360008301526120998161205d565b9050919050565b60006040820190506120b56000830185611424565b6120c260208301846119ce565b939250505056fea264697066735822122079b8893a53600ed05258e300e5ef8d57c72c2955d972a35dd7a7f02431d46e5464736f6c63430008130033",
  "linkReferences": {},
  "deployedLinkReferences": {}
}