{
  "_format": "hh-sol-artifact-1",
  "contractName": "NFT",
  "sourceName": "contracts/client/NFT.sol",
  "abi": [
    {
      "inputs": [
        {
          "internalType": "address",
          "name": "_couponContract",
          "type": "address"
        }
      ],
      "stateMutability": "nonpayable",
      "type": "constructor"
    },
    {
      "inputs": [
        {
          "internalType": "bytes32",
          "name": "gameId",
          "type": "bytes32"
        },
        {
          "internalType": "uint256",
          "name": "_tokenId",
          "type": "uint256"
        },
        {
          "internalType": "address",
          "name": "burner",
          "type": "address"
        }
      ],
      "name": "burn",
      "outputs": [
        {
          "internalType": "bool",
          "name": "",
          "type": "bool"
        },
        {
          "internalType": "bytes32",
          "name": "",
          "type": "bytes32"
        }
      ],
      "stateMutability": "nonpayable",
      "type": "function"
    },
    {
      "inputs": [
        {
          "internalType": "bytes32",
          "name": "gameId",
          "type": "bytes32"
        },
        {
          "internalType": "uint256",
          "name": "_tokenId",
          "type": "uint256"
        },
        {
          "internalType": "address",
          "name": "_buyer",
          "type": "address"
        }
      ],
      "name": "buyToken",
      "outputs": [],
      "stateMutability": "payable",
      "type": "function"
    },
    {
      "inputs": [
        {
          "internalType": "bytes32",
          "name": "couponId",
          "type": "bytes32"
        },
        {
          "internalType": "bytes32",
          "name": "gameId",
          "type": "bytes32"
        },
        {
          "internalType": "uint256",
          "name": "_tokenId",
          "type": "uint256"
        },
        {
          "internalType": "address",
          "name": "_buyer",
          "type": "address"
        }
      ],
      "name": "buyTokenWithCoupon",
      "outputs": [],
      "stateMutability": "payable",
      "type": "function"
    },
    {
      "inputs": [
        {
          "internalType": "bytes32",
          "name": "gameId",
          "type": "bytes32"
        }
      ],
      "name": "getLockedTokens",
      "outputs": [
        {
          "components": [
            {
              "internalType": "uint256",
              "name": "id",
              "type": "uint256"
            },
            {
              "internalType": "bytes32",
              "name": "storekey",
              "type": "bytes32"
            },
            {
              "internalType": "uint256",
              "name": "price",
              "type": "uint256"
            },
            {
              "internalType": "bool",
              "name": "sold",
              "type": "bool"
            },
            {
              "internalType": "address payable",
              "name": "owner",
              "type": "address"
            },
            {
              "internalType": "bool",
              "name": "locked",
              "type": "bool"
            }
          ],
          "internalType": "struct NFT.Token[]",
          "name": "",
          "type": "tuple[]"
        }
      ],
      "stateMutability": "view",
      "type": "function"
    },
    {
      "inputs": [
        {
          "internalType": "bytes32",
          "name": "gameId",
          "type": "bytes32"
        },
        {
          "internalType": "address",
          "name": "sender",
          "type": "address"
        }
      ],
      "name": "getMyTokens",
      "outputs": [
        {
          "components": [
            {
              "internalType": "uint256",
              "name": "id",
              "type": "uint256"
            },
            {
              "internalType": "bytes32",
              "name": "storekey",
              "type": "bytes32"
            },
            {
              "internalType": "uint256",
              "name": "price",
              "type": "uint256"
            },
            {
              "internalType": "bool",
              "name": "sold",
              "type": "bool"
            },
            {
              "internalType": "address payable",
              "name": "owner",
              "type": "address"
            },
            {
              "internalType": "bool",
              "name": "locked",
              "type": "bool"
            }
          ],
          "internalType": "struct NFT.Token[]",
          "name": "",
          "type": "tuple[]"
        }
      ],
      "stateMutability": "view",
      "type": "function"
    },
    {
      "inputs": [
        {
          "internalType": "bytes32",
          "name": "gameId",
          "type": "bytes32"
        },
        {
          "internalType": "uint256",
          "name": "_tokenId",
          "type": "uint256"
        }
      ],
      "name": "getNFTById",
      "outputs": [
        {
          "components": [
            {
              "internalType": "uint256",
              "name": "id",
              "type": "uint256"
            },
            {
              "internalType": "bytes32",
              "name": "storekey",
              "type": "bytes32"
            },
            {
              "internalType": "uint256",
              "name": "price",
              "type": "uint256"
            },
            {
              "internalType": "bool",
              "name": "sold",
              "type": "bool"
            },
            {
              "internalType": "address payable",
              "name": "owner",
              "type": "address"
            },
            {
              "internalType": "bool",
              "name": "locked",
              "type": "bool"
            }
          ],
          "internalType": "struct NFT.Token",
          "name": "",
          "type": "tuple"
        }
      ],
      "stateMutability": "view",
      "type": "function"
    },
    {
      "inputs": [
        {
          "internalType": "uint256",
          "name": "_tokenId",
          "type": "uint256"
        },
        {
          "internalType": "bytes32",
          "name": "gameId",
          "type": "bytes32"
        }
      ],
      "name": "getTokenOwner",
      "outputs": [
        {
          "internalType": "address",
          "name": "",
          "type": "address"
        }
      ],
      "stateMutability": "view",
      "type": "function"
    },
    {
      "inputs": [
        {
          "internalType": "uint256",
          "name": "_tokenId",
          "type": "uint256"
        },
        {
          "internalType": "bytes32",
          "name": "gameId",
          "type": "bytes32"
        }
      ],
      "name": "getTokenPrice",
      "outputs": [
        {
          "internalType": "uint256",
          "name": "",
          "type": "uint256"
        }
      ],
      "stateMutability": "view",
      "type": "function"
    },
    {
      "inputs": [
        {
          "internalType": "bytes32",
          "name": "gameId",
          "type": "bytes32"
        }
      ],
      "name": "getUnsoldTokens",
      "outputs": [
        {
          "components": [
            {
              "internalType": "uint256",
              "name": "id",
              "type": "uint256"
            },
            {
              "internalType": "bytes32",
              "name": "storekey",
              "type": "bytes32"
            },
            {
              "internalType": "uint256",
              "name": "price",
              "type": "uint256"
            },
            {
              "internalType": "bool",
              "name": "sold",
              "type": "bool"
            },
            {
              "internalType": "address payable",
              "name": "owner",
              "type": "address"
            },
            {
              "internalType": "bool",
              "name": "locked",
              "type": "bool"
            }
          ],
          "internalType": "struct NFT.Token[]",
          "name": "",
          "type": "tuple[]"
        }
      ],
      "stateMutability": "view",
      "type": "function"
    },
    {
      "inputs": [
        {
          "internalType": "bytes32",
          "name": "gameId",
          "type": "bytes32"
        },
        {
          "internalType": "uint256",
          "name": "_tokenId",
          "type": "uint256"
        }
      ],
      "name": "lockNFT",
      "outputs": [],
      "stateMutability": "nonpayable",
      "type": "function"
    },
    {
      "inputs": [
        {
          "internalType": "address",
          "name": "to",
          "type": "address"
        },
        {
          "internalType": "bytes32",
          "name": "gameId",
          "type": "bytes32"
        },
        {
          "internalType": "bytes32",
          "name": "storekey",
          "type": "bytes32"
        },
        {
          "internalType": "uint256",
          "name": "_price",
          "type": "uint256"
        }
      ],
      "name": "mint",
      "outputs": [],
      "stateMutability": "nonpayable",
      "type": "function"
    },
    {
      "inputs": [],
      "name": "tokenId",
      "outputs": [
        {
          "internalType": "uint256",
          "name": "",
          "type": "uint256"
        }
      ],
      "stateMutability": "view",
      "type": "function"
    },
    {
      "inputs": [
        {
          "internalType": "bytes32",
          "name": "",
          "type": "bytes32"
        },
        {
          "internalType": "uint256",
          "name": "",
          "type": "uint256"
        }
      ],
      "name": "tokens",
      "outputs": [
        {
          "internalType": "uint256",
          "name": "id",
          "type": "uint256"
        },
        {
          "internalType": "bytes32",
          "name": "storekey",
          "type": "bytes32"
        },
        {
          "internalType": "uint256",
          "name": "price",
          "type": "uint256"
        },
        {
          "internalType": "bool",
          "name": "sold",
          "type": "bool"
        },
        {
          "internalType": "address payable",
          "name": "owner",
          "type": "address"
        },
        {
          "internalType": "bool",
          "name": "locked",
          "type": "bool"
        }
      ],
      "stateMutability": "view",
      "type": "function"
    },
    {
      "inputs": [
        {
          "internalType": "bytes32",
          "name": "gameId",
          "type": "bytes32"
        },
        {
          "internalType": "address",
          "name": "to",
          "type": "address"
        },
        {
          "internalType": "uint256",
          "name": "_tokenId",
          "type": "uint256"
        }
      ],
      "name": "transfer",
      "outputs": [],
      "stateMutability": "nonpayable",
      "type": "function"
    },
    {
      "inputs": [
        {
          "internalType": "bytes32",
          "name": "gameId",
          "type": "bytes32"
        },
        {
          "internalType": "uint256",
          "name": "_tokenId",
          "type": "uint256"
        },
        {
          "internalType": "address",
          "name": "owner",
          "type": "address"
        }
      ],
      "name": "unLockNFT",
      "outputs": [],
      "stateMutability": "nonpayable",
      "type": "function"
    }
  ],
  "bytecode": "0x60806040523480156200001157600080fd5b50604051620025e9380380620025e98339818101604052810190620000379190620000e8565b806000806101000a81548173ffffffffffffffffffffffffffffffffffffffff021916908373ffffffffffffffffffffffffffffffffffffffff160217905550506200011a565b600080fd5b600073ffffffffffffffffffffffffffffffffffffffff82169050919050565b6000620000b08262000083565b9050919050565b620000c281620000a3565b8114620000ce57600080fd5b50565b600081519050620000e281620000b7565b92915050565b6000602082840312156200010157620001006200007e565b5b60006200011184828501620000d1565b91505092915050565b6124bf806200012a6000396000f3fe6080604052600436106100e75760003560e01c80636d7ee6ed1161008a578063c898e3d311610059578063c898e3d314610301578063d09d043b1461032a578063d71c2c5a14610367578063ff049309146103a4576100e7565b80636d7ee6ed1461022d5780638b116e1e1461026a5780638f4949711461028657806396c5eb73146102c4576100e7565b8063227f2737116100c6578063227f2737146101825780633feb1bd81461019e57806355fcc785146101c757806360c5b6da146101f0576100e7565b8062535109146100ec57806317d70f7c1461012e578063199add6d14610159575b600080fd5b3480156100f857600080fd5b50610113600480360381019061010e919061198e565b6103e1565b60405161012596959493929190611a48565b60405180910390f35b34801561013a57600080fd5b50610143610464565b6040516101509190611aa9565b60405180910390f35b34801561016557600080fd5b50610180600480360381019061017b9190611b02565b61046a565b005b61019c60048036038101906101979190611b69565b61059b565b005b3480156101aa57600080fd5b506101c560048036038101906101c09190611bd0565b610911565b005b3480156101d357600080fd5b506101ee60048036038101906101e99190611c23565b61097c565b005b3480156101fc57600080fd5b5061021760048036038101906102129190611c76565b610a0a565b6040516102249190611e09565b60405180910390f35b34801561023957600080fd5b50610254600480360381019061024f9190611e2b565b610d3e565b6040516102619190611e7a565b60405180910390f35b610284600480360381019061027f9190611c23565b610d90565b005b34801561029257600080fd5b506102ad60048036038101906102a89190611c23565b610f3e565b6040516102bb929190611e95565b60405180910390f35b3480156102d057600080fd5b506102eb60048036038101906102e69190611ebe565b611188565b6040516102f89190611e09565b60405180910390f35b34801561030d57600080fd5b506103286004803603810190610323919061198e565b6114b9565b005b34801561033657600080fd5b50610351600480360381019061034c919061198e565b611503565b60405161035e9190611f79565b60405180910390f35b34801561037357600080fd5b5061038e60048036038101906103899190611c76565b6115ec565b60405161039b9190611e09565b60405180910390f35b3480156103b057600080fd5b506103cb60048036038101906103c69190611e2b565b611898565b6040516103d89190611aa9565b60405180910390f35b6002602052816000526040600020602052806000526040600020600091509150508060000154908060010154908060020154908060030160009054906101000a900460ff16908060030160019054906101000a900473ffffffffffffffffffffffffffffffffffffffff16908060030160159054906101000a900460ff16905086565b60015481565b6040518060c0016040528060015481526020018381526020018281526020016000151581526020018573ffffffffffffffffffffffffffffffffffffffff16815260200160001515815250600260008581526020019081526020016000206000600154815260200190815260200160002060008201518160000155602082015181600101556040820151816002015560608201518160030160006101000a81548160ff02191690831515021790555060808201518160030160016101000a81548173ffffffffffffffffffffffffffffffffffffffff021916908373ffffffffffffffffffffffffffffffffffffffff16021790555060a08201518160030160156101000a81548160ff02191690831515021790555090505060016000815480929190600101919050555050505050565b6000600260008581526020019081526020016000206000848152602001908152602001600020600201549050600060026000868152602001908152602001600020600085815260200190815260200160002060030160019054906101000a900473ffffffffffffffffffffffffffffffffffffffff16905060008060008054906101000a900473ffffffffffffffffffffffffffffffffffffffff1673ffffffffffffffffffffffffffffffffffffffff16639781b729338a6040518363ffffffff1660e01b8152600401610671929190611f94565b6040805180830381865afa15801561068d573d6000803e3d6000fd5b505050506040513d601f19601f820116820180604052508101906106b19190611ffe565b91509150816106f5576040517f08c379a00000000000000000000000000000000000000000000000000000000081526004016106ec906120c1565b60405180910390fd5b60008111610738576040517f08c379a000000000000000000000000000000000000000000000000000000000815260040161072f9061212d565b60405180910390fd5b60008185610746919061217c565b905080341461078a576040517f08c379a000000000000000000000000000000000000000000000000000000000815260040161078190612222565b60405180910390fd5b85600260008a8152602001908152602001600020600089815260200190815260200160002060030160016101000a81548173ffffffffffffffffffffffffffffffffffffffff021916908373ffffffffffffffffffffffffffffffffffffffff1602179055506001600260008a8152602001908152602001600020600089815260200190815260200160002060030160006101000a81548160ff02191690831515021790555060008054906101000a900473ffffffffffffffffffffffffffffffffffffffff1673ffffffffffffffffffffffffffffffffffffffff1663e3d986e133868c6040518463ffffffff1660e01b815260040161088d93929190612242565b600060405180830381600087803b1580156108a757600080fd5b505af11580156108bb573d6000803e3d6000fd5b505050508373ffffffffffffffffffffffffffffffffffffffff166108fc349081150290604051600060405180830381858888f19350505050158015610905573d6000803e3d6000fd5b50505050505050505050565b8160026000858152602001908152602001600020600083815260200190815260200160002060030160016101000a81548173ffffffffffffffffffffffffffffffffffffffff021916908373ffffffffffffffffffffffffffffffffffffffff160217905550505050565b6000600260008581526020019081526020016000206000848152602001908152602001600020905060008160030160156101000a81548160ff021916908315150217905550818160030160016101000a81548173ffffffffffffffffffffffffffffffffffffffff021916908373ffffffffffffffffffffffffffffffffffffffff16021790555050505050565b60606000805b600154811015610af75760026000858152602001908152602001600020600082815260200190815260200160002060030160009054906101000a900460ff16158015610ad05750600073ffffffffffffffffffffffffffffffffffffffff1660026000868152602001908152602001600020600083815260200190815260200160002060030160019054906101000a900473ffffffffffffffffffffffffffffffffffffffff1673ffffffffffffffffffffffffffffffffffffffff1614155b15610ae4578180610ae090612279565b9250505b8080610aef90612279565b915050610a10565b5060008167ffffffffffffffff811115610b1457610b136122c1565b5b604051908082528060200260200182016040528015610b4d57816020015b610b3a6118ca565b815260200190600190039081610b325790505b5090506000805b600154811015610d325760026000878152602001908152602001600020600082815260200190815260200160002060030160009054906101000a900460ff16158015610c145750600073ffffffffffffffffffffffffffffffffffffffff1660026000888152602001908152602001600020600083815260200190815260200160002060030160019054906101000a900473ffffffffffffffffffffffffffffffffffffffff1673ffffffffffffffffffffffffffffffffffffffff1614155b15610d1f576002600087815260200190815260200160002060008281526020019081526020016000206040518060c00160405290816000820154815260200160018201548152602001600282015481526020016003820160009054906101000a900460ff161515151581526020016003820160019054906101000a900473ffffffffffffffffffffffffffffffffffffffff1673ffffffffffffffffffffffffffffffffffffffff1673ffffffffffffffffffffffffffffffffffffffff1681526020016003820160159054906101000a900460ff161515151581525050838381518110610d0557610d046122f0565b5b60200260200101819052508180610d1b90612279565b9250505b8080610d2a90612279565b915050610b54565b50819350505050919050565b600060026000838152602001908152602001600020600084815260200190815260200160002060030160019054906101000a900473ffffffffffffffffffffffffffffffffffffffff16905092915050565b6000600260008581526020019081526020016000206000848152602001908152602001600020600201549050600060026000868152602001908152602001600020600085815260200190815260200160002060030160019054906101000a900473ffffffffffffffffffffffffffffffffffffffff169050813414610e4a576040517f08c379a0000000000000000000000000000000000000000000000000000000008152600401610e419061236b565b60405180910390fd5b8260026000878152602001908152602001600020600086815260200190815260200160002060030160016101000a81548173ffffffffffffffffffffffffffffffffffffffff021916908373ffffffffffffffffffffffffffffffffffffffff160217905550600160026000878152602001908152602001600020600086815260200190815260200160002060030160006101000a81548160ff0219169083151502179055508073ffffffffffffffffffffffffffffffffffffffff166108fc349081150290604051600060405180830381858888f19350505050158015610f36573d6000803e3d6000fd5b505050505050565b60008060006002600087815260200190815260200160002060008681526020019081526020016000206040518060c00160405290816000820154815260200160018201548152602001600282015481526020016003820160009054906101000a900460ff161515151581526020016003820160019054906101000a900473ffffffffffffffffffffffffffffffffffffffff1673ffffffffffffffffffffffffffffffffffffffff1673ffffffffffffffffffffffffffffffffffffffff1681526020016003820160159054906101000a900460ff16151515158152505090508373ffffffffffffffffffffffffffffffffffffffff16816080015173ffffffffffffffffffffffffffffffffffffffff1614611090576040517f08c379a0000000000000000000000000000000000000000000000000000000008152600401611087906123fd565b60405180910390fd5b8060a00151156110d5576040517f08c379a00000000000000000000000000000000000000000000000000000000081526004016110cc90612469565b60405180910390fd5b6001816060019015159081151581525050600260008781526020019081526020016000206000868152602001908152602001600020600080820160009055600182016000905560028201600090556003820160006101000a81549060ff02191690556003820160016101000a81549073ffffffffffffffffffffffffffffffffffffffff02191690556003820160156101000a81549060ff02191690555050600181602001519250925050935093915050565b60606000805b600154811015611273578373ffffffffffffffffffffffffffffffffffffffff1660026000878152602001908152602001600020600083815260200190815260200160002060030160019054906101000a900473ffffffffffffffffffffffffffffffffffffffff1673ffffffffffffffffffffffffffffffffffffffff1614801561124c575060026000868152602001908152602001600020600082815260200190815260200160002060030160159054906101000a900460ff16155b1561126057818061125c90612279565b9250505b808061126b90612279565b91505061118e565b5060008167ffffffffffffffff8111156112905761128f6122c1565b5b6040519080825280602002602001820160405280156112c957816020015b6112b66118ca565b8152602001906001900390816112ae5790505b5090506000805b6001548110156114ac578573ffffffffffffffffffffffffffffffffffffffff1660026000898152602001908152602001600020600083815260200190815260200160002060030160019054906101000a900473ffffffffffffffffffffffffffffffffffffffff1673ffffffffffffffffffffffffffffffffffffffff1614801561138e575060026000888152602001908152602001600020600082815260200190815260200160002060030160159054906101000a900460ff16155b15611499576002600088815260200190815260200160002060008281526020019081526020016000206040518060c00160405290816000820154815260200160018201548152602001600282015481526020016003820160009054906101000a900460ff161515151581526020016003820160019054906101000a900473ffffffffffffffffffffffffffffffffffffffff1673ffffffffffffffffffffffffffffffffffffffff1673ffffffffffffffffffffffffffffffffffffffff1681526020016003820160159054906101000a900460ff16151515158152505083838151811061147f5761147e6122f0565b5b6020026020010181905250818061149590612279565b9250505b80806114a490612279565b9150506112d0565b5081935050505092915050565b6000600260008481526020019081526020016000206000838152602001908152602001600020905060018160030160156101000a81548160ff021916908315150217905550505050565b61150b6118ca565b6002600084815260200190815260200160002060008381526020019081526020016000206040518060c00160405290816000820154815260200160018201548152602001600282015481526020016003820160009054906101000a900460ff161515151581526020016003820160019054906101000a900473ffffffffffffffffffffffffffffffffffffffff1673ffffffffffffffffffffffffffffffffffffffff1673ffffffffffffffffffffffffffffffffffffffff1681526020016003820160159054906101000a900460ff161515151581525050905092915050565b60606000805b6001548110156116955760026000858152602001908152602001600020600082815260200190815260200160002060030160009054906101000a900460ff16801561166e575060026000858152602001908152602001600020600082815260200190815260200160002060030160159054906101000a900460ff165b1561168257818061167e90612279565b9250505b808061168d90612279565b9150506115f2565b5060008167ffffffffffffffff8111156116b2576116b16122c1565b5b6040519080825280602002602001820160405280156116eb57816020015b6116d86118ca565b8152602001906001900390816116d05790505b5090506000805b60015481101561188c5760026000878152602001908152602001600020600082815260200190815260200160002060030160009054906101000a900460ff16801561176e575060026000878152602001908152602001600020600082815260200190815260200160002060030160159054906101000a900460ff165b15611879576002600087815260200190815260200160002060008281526020019081526020016000206040518060c00160405290816000820154815260200160018201548152602001600282015481526020016003820160009054906101000a900460ff161515151581526020016003820160019054906101000a900473ffffffffffffffffffffffffffffffffffffffff1673ffffffffffffffffffffffffffffffffffffffff1673ffffffffffffffffffffffffffffffffffffffff1681526020016003820160159054906101000a900460ff16151515158152505083838151811061185f5761185e6122f0565b5b6020026020010181905250818061187590612279565b9250505b808061188490612279565b9150506116f2565b50819350505050919050565b600060026000838152602001908152602001600020600084815260200190815260200160002060020154905092915050565b6040518060c00160405280600081526020016000801916815260200160008152602001600015158152602001600073ffffffffffffffffffffffffffffffffffffffff1681526020016000151581525090565b600080fd5b6000819050919050565b61193581611922565b811461194057600080fd5b50565b6000813590506119528161192c565b92915050565b6000819050919050565b61196b81611958565b811461197657600080fd5b50565b60008135905061198881611962565b92915050565b600080604083850312156119a5576119a461191d565b5b60006119b385828601611943565b92505060206119c485828601611979565b9150509250929050565b6119d781611958565b82525050565b6119e681611922565b82525050565b60008115159050919050565b611a01816119ec565b82525050565b600073ffffffffffffffffffffffffffffffffffffffff82169050919050565b6000611a3282611a07565b9050919050565b611a4281611a27565b82525050565b600060c082019050611a5d60008301896119ce565b611a6a60208301886119dd565b611a7760408301876119ce565b611a8460608301866119f8565b611a916080830185611a39565b611a9e60a08301846119f8565b979650505050505050565b6000602082019050611abe60008301846119ce565b92915050565b6000611acf82611a07565b9050919050565b611adf81611ac4565b8114611aea57600080fd5b50565b600081359050611afc81611ad6565b92915050565b60008060008060808587031215611b1c57611b1b61191d565b5b6000611b2a87828801611aed565b9450506020611b3b87828801611943565b9350506040611b4c87828801611943565b9250506060611b5d87828801611979565b91505092959194509250565b60008060008060808587031215611b8357611b8261191d565b5b6000611b9187828801611943565b9450506020611ba287828801611943565b9350506040611bb387828801611979565b9250506060611bc487828801611aed565b91505092959194509250565b600080600060608486031215611be957611be861191d565b5b6000611bf786828701611943565b9350506020611c0886828701611aed565b9250506040611c1986828701611979565b9150509250925092565b600080600060608486031215611c3c57611c3b61191d565b5b6000611c4a86828701611943565b9350506020611c5b86828701611979565b9250506040611c6c86828701611aed565b9150509250925092565b600060208284031215611c8c57611c8b61191d565b5b6000611c9a84828501611943565b91505092915050565b600081519050919050565b600082825260208201905092915050565b6000819050602082019050919050565b611cd881611958565b82525050565b611ce781611922565b82525050565b611cf6816119ec565b82525050565b611d0581611a27565b82525050565b60c082016000820151611d216000850182611ccf565b506020820151611d346020850182611cde565b506040820151611d476040850182611ccf565b506060820151611d5a6060850182611ced565b506080820151611d6d6080850182611cfc565b5060a0820151611d8060a0850182611ced565b50505050565b6000611d928383611d0b565b60c08301905092915050565b6000602082019050919050565b6000611db682611ca3565b611dc08185611cae565b9350611dcb83611cbf565b8060005b83811015611dfc578151611de38882611d86565b9750611dee83611d9e565b925050600181019050611dcf565b5085935050505092915050565b60006020820190508181036000830152611e238184611dab565b905092915050565b60008060408385031215611e4257611e4161191d565b5b6000611e5085828601611979565b9250506020611e6185828601611943565b9150509250929050565b611e7481611ac4565b82525050565b6000602082019050611e8f6000830184611e6b565b92915050565b6000604082019050611eaa60008301856119f8565b611eb760208301846119dd565b9392505050565b60008060408385031215611ed557611ed461191d565b5b6000611ee385828601611943565b9250506020611ef485828601611aed565b9150509250929050565b60c082016000820151611f146000850182611ccf565b506020820151611f276020850182611cde565b506040820151611f3a6040850182611ccf565b506060820151611f4d6060850182611ced565b506080820151611f606080850182611cfc565b5060a0820151611f7360a0850182611ced565b50505050565b600060c082019050611f8e6000830184611efe565b92915050565b6000604082019050611fa96000830185611e6b565b611fb660208301846119dd565b9392505050565b611fc6816119ec565b8114611fd157600080fd5b50565b600081519050611fe381611fbd565b92915050565b600081519050611ff881611962565b92915050565b600080604083850312156120155761201461191d565b5b600061202385828601611fd4565b925050602061203485828601611fe9565b9150509250929050565b600082825260208201905092915050565b7f436f75706f6e206e6f742076616c6964206f7220616c7265616479207769746860008201527f647261776e000000000000000000000000000000000000000000000000000000602082015250565b60006120ab60258361203e565b91506120b68261204f565b604082019050919050565b600060208201905081810360008301526120da8161209e565b9050919050565b7f436f75706f6e20686173206e6f2076616c756500000000000000000000000000600082015250565b600061211760138361203e565b9150612122826120e1565b602082019050919050565b600060208201905081810360008301526121468161210a565b9050919050565b7f4e487b7100000000000000000000000000000000000000000000000000000000600052601160045260246000fd5b600061218782611958565b915061219283611958565b92508282039050818111156121aa576121a961214d565b5b92915050565b7f53656e642074686520636f727265637420646973636f756e74656420616d6f7560008201527f6e74000000000000000000000000000000000000000000000000000000000000602082015250565b600061220c60228361203e565b9150612217826121b0565b604082019050919050565b6000602082019050818103600083015261223b816121ff565b9050919050565b60006060820190506122576000830186611e6b565b6122646020830185611e6b565b61227160408301846119dd565b949350505050565b600061228482611958565b91507fffffffffffffffffffffffffffffffffffffffffffffffffffffffffffffffff82036122b6576122b561214d565b5b600182019050919050565b7f4e487b7100000000000000000000000000000000000000000000000000000000600052604160045260246000fd5b7f4e487b7100000000000000000000000000000000000000000000000000000000600052603260045260246000fd5b7f53656e642074686520636f727265637420616d6f756e74000000000000000000600082015250565b600061235560178361203e565b91506123608261231f565b602082019050919050565b6000602082019050818103600083015261238481612348565b9050919050565b7f4f6e6c7920746865206f776e65722063616e206275726e2074686520746f6b6560008201527f6e00000000000000000000000000000000000000000000000000000000000000602082015250565b60006123e760218361203e565b91506123f28261238b565b604082019050919050565b60006020820190508181036000830152612416816123da565b9050919050565b7f546865204e46542069732072656e746564000000000000000000000000000000600082015250565b600061245360118361203e565b915061245e8261241d565b602082019050919050565b6000602082019050818103600083015261248281612446565b905091905056fea264697066735822122021a4521377b32f7fee818b2f75ef722eaa0f930db31fc2ac6a1e9104a7bc068964736f6c63430008130033",
  "linkReferences": {},
  "deployedLinkReferences": {}
}