{
  "_format": "hh-sol-artifact-1",
  "contractName": "OffChain",
  "sourceName": "contracts/main/OffChain.sol",
  "abi": [
    {
      "inputs": [
        {
          "components": [
            {
              "internalType": "address",
              "name": "receiver",
              "type": "address"
            },
            {
              "internalType": "bytes",
              "name": "data",
              "type": "bytes"
            }
          ],
          "internalType": "struct Message.MessageInfo",
          "name": "message",
          "type": "tuple"
        }
      ],
      "name": "crossChainMessageReceive",
      "outputs": [],
      "stateMutability": "nonpayable",
      "type": "function"
    },
    {
      "inputs": [
        {
          "components": [
            {
              "internalType": "address",
              "name": "receiver",
              "type": "address"
            },
            {
              "internalType": "bytes",
              "name": "data",
              "type": "bytes"
            }
          ],
          "internalType": "struct Message.MessageInfo",
          "name": "message",
          "type": "tuple"
        }
      ],
      "name": "crossChainMessageReceiveWithAmount",
      "outputs": [],
      "stateMutability": "payable",
      "type": "function"
    }
  ],
  "bytecode": "0x608060405234801561001057600080fd5b50610499806100206000396000f3fe6080604052600436106100295760003560e01c806366485a6c1461002e57806386adb04d14610057575b600080fd5b34801561003a57600080fd5b5061005560048036038101906100509190610248565b610073565b005b610071600480360381019061006c9190610248565b610146565b005b600081600001602081019061008891906102ef565b73ffffffffffffffffffffffffffffffffffffffff168280602001906100ae919061032b565b6040516100bc9291906103cd565b6000604051808303816000865af19150503d80600081146100f9576040519150601f19603f3d011682016040523d82523d6000602084013e6100fe565b606091505b5050905080610142576040517f08c379a000000000000000000000000000000000000000000000000000000000815260040161013990610443565b60405180910390fd5b5050565b600081600001602081019061015b91906102ef565b73ffffffffffffffffffffffffffffffffffffffff1634838060200190610182919061032b565b6040516101909291906103cd565b60006040518083038185875af1925050503d80600081146101cd576040519150601f19603f3d011682016040523d82523d6000602084013e6101d2565b606091505b5050905080610216576040517f08c379a000000000000000000000000000000000000000000000000000000000815260040161020d90610443565b60405180910390fd5b5050565b600080fd5b600080fd5b600080fd5b60006040828403121561023f5761023e610224565b5b81905092915050565b60006020828403121561025e5761025d61021a565b5b600082013567ffffffffffffffff81111561027c5761027b61021f565b5b61028884828501610229565b91505092915050565b600073ffffffffffffffffffffffffffffffffffffffff82169050919050565b60006102bc82610291565b9050919050565b6102cc816102b1565b81146102d757600080fd5b50565b6000813590506102e9816102c3565b92915050565b6000602082840312156103055761030461021a565b5b6000610313848285016102da565b91505092915050565b600080fd5b600080fd5b600080fd5b600080833560016020038436030381126103485761034761031c565b5b80840192508235915067ffffffffffffffff82111561036a57610369610321565b5b60208301925060018202360383131561038657610385610326565b5b509250929050565b600081905092915050565b82818337600083830152505050565b60006103b4838561038e565b93506103c1838584610399565b82840190509392505050565b60006103da8284866103a8565b91508190509392505050565b600082825260208201905092915050565b7f43616c6c20746f207265636569766572206661696c6564000000000000000000600082015250565b600061042d6017836103e6565b9150610438826103f7565b602082019050919050565b6000602082019050818103600083015261045c81610420565b905091905056fea2646970667358221220cb7affad74400079cc4f5da395013a49b60aab5c7ffba23388224ca98216bf8664736f6c63430008130033",
  "linkReferences": {},
  "deployedLinkReferences": {}
}