{
  "_format": "hh-sol-artifact-1",
  "contractName": "Contribution",
  "sourceName": "contracts/main/Contribution.sol",
  "abi": [
    {
      "inputs": [
        {
          "internalType": "address",
          "name": "_couponContract",
          "type": "address"
        }
      ],
      "stateMutability": "nonpayable",
      "type": "constructor"
    },
    {
      "inputs": [],
      "name": "addContribution",
      "outputs": [],
      "stateMutability": "payable",
      "type": "function"
    },
    {
      "inputs": [
        {
          "internalType": "uint256",
          "name": "",
          "type": "uint256"
        }
      ],
      "name": "allContributions",
      "outputs": [
        {
          "internalType": "address",
          "name": "contributor",
          "type": "address"
        },
        {
          "internalType": "uint256",
          "name": "value",
          "type": "uint256"
        },
        {
          "internalType": "uint256",
          "name": "timestamp",
          "type": "uint256"
        }
      ],
      "stateMutability": "view",
      "type": "function"
    },
    {
      "inputs": [
        {
          "internalType": "address",
          "name": "",
          "type": "address"
        }
      ],
      "name": "contributions",
      "outputs": [
        {
          "internalType": "uint256",
          "name": "",
          "type": "uint256"
        }
      ],
      "stateMutability": "view",
      "type": "function"
    },
    {
      "inputs": [],
      "name": "getAllContributions",
      "outputs": [
        {
          "components": [
            {
              "internalType": "address",
              "name": "contributor",
              "type": "address"
            },
            {
              "internalType": "uint256",
              "name": "value",
              "type": "uint256"
            },
            {
              "internalType": "uint256",
              "name": "timestamp",
              "type": "uint256"
            }
          ],
          "internalType": "struct Contribution.ContributionDetails[]",
          "name": "",
          "type": "tuple[]"
        }
      ],
      "stateMutability": "view",
      "type": "function"
    },
    {
      "inputs": [],
      "name": "getBalance",
      "outputs": [
        {
          "internalType": "uint256",
          "name": "",
          "type": "uint256"
        }
      ],
      "stateMutability": "view",
      "type": "function"
    },
    {
      "inputs": [
        {
          "internalType": "address",
          "name": "contributor",
          "type": "address"
        }
      ],
      "name": "getMyContribution",
      "outputs": [
        {
          "internalType": "uint256",
          "name": "",
          "type": "uint256"
        }
      ],
      "stateMutability": "view",
      "type": "function"
    },
    {
      "inputs": [],
      "name": "getOverAllContribution",
      "outputs": [
        {
          "internalType": "uint256",
          "name": "",
          "type": "uint256"
        }
      ],
      "stateMutability": "view",
      "type": "function"
    },
    {
      "inputs": [],
      "name": "nonce",
      "outputs": [
        {
          "internalType": "uint256",
          "name": "",
          "type": "uint256"
        }
      ],
      "stateMutability": "view",
      "type": "function"
    },
    {
      "inputs": [],
      "name": "overAllContribution",
      "outputs": [
        {
          "internalType": "uint256",
          "name": "",
          "type": "uint256"
        }
      ],
      "stateMutability": "view",
      "type": "function"
    },
    {
      "inputs": [
        {
          "internalType": "bytes32",
          "name": "couponId",
          "type": "bytes32"
        }
      ],
      "name": "withdrawCouponValue",
      "outputs": [],
      "stateMutability": "nonpayable",
      "type": "function"
    },
    {
      "inputs": [
        {
          "internalType": "uint256",
          "name": "amount",
          "type": "uint256"
        }
      ],
      "name": "withdrawFunds",
      "outputs": [],
      "stateMutability": "nonpayable",
      "type": "function"
    }
  ],
  "bytecode": "0x60806040523480156200001157600080fd5b50604051620013fe380380620013fe833981810160405281019062000037919062000129565b336000806101000a81548173ffffffffffffffffffffffffffffffffffffffff021916908373ffffffffffffffffffffffffffffffffffffffff16021790555080600160006101000a81548173ffffffffffffffffffffffffffffffffffffffff021916908373ffffffffffffffffffffffffffffffffffffffff160217905550506200015b565b600080fd5b600073ffffffffffffffffffffffffffffffffffffffff82169050919050565b6000620000f182620000c4565b9050919050565b6200010381620000e4565b81146200010f57600080fd5b50565b6000815190506200012381620000f8565b92915050565b600060208284031215620001425762000141620000bf565b5b6000620001528482850162000112565b91505092915050565b611293806200016b6000396000f3fe60806040526004361061009c5760003560e01c80635597ef08116100645780635597ef08146101885780635e1ea858146101b3578063631922f9146101f257806393cd40b41461022f578063adabf6cc14610239578063affed0e0146102625761009c565b806312065fe0146100a1578063155dd5ee146100cc57806337f3061d146100f557806342e94c9014610120578063514ab14a1461015d575b600080fd5b3480156100ad57600080fd5b506100b661028d565b6040516100c39190610a74565b60405180910390f35b3480156100d857600080fd5b506100f360048036038101906100ee9190610ac0565b610295565b005b34801561010157600080fd5b5061010a6103d0565b6040516101179190610c2e565b60405180910390f35b34801561012c57600080fd5b5061014760048036038101906101429190610c7c565b610499565b6040516101549190610a74565b60405180910390f35b34801561016957600080fd5b506101726104b1565b60405161017f9190610a74565b60405180910390f35b34801561019457600080fd5b5061019d6104bb565b6040516101aa9190610a74565b60405180910390f35b3480156101bf57600080fd5b506101da60048036038101906101d59190610ac0565b6104c1565b6040516101e993929190610cb8565b60405180910390f35b3480156101fe57600080fd5b5061021960048036038101906102149190610c7c565b61051b565b6040516102269190610a74565b60405180910390f35b610237610564565b005b34801561024557600080fd5b50610260600480360381019061025b9190610d25565b610853565b005b34801561026e57600080fd5b50610277610a55565b6040516102849190610a74565b60405180910390f35b600047905090565b60008054906101000a900473ffffffffffffffffffffffffffffffffffffffff1673ffffffffffffffffffffffffffffffffffffffff163373ffffffffffffffffffffffffffffffffffffffff1614610323576040517f08c379a000000000000000000000000000000000000000000000000000000000815260040161031a90610dd5565b60405180910390fd5b47811115610366576040517f08c379a000000000000000000000000000000000000000000000000000000000815260040161035d90610e41565b60405180910390fd5b60008054906101000a900473ffffffffffffffffffffffffffffffffffffffff1673ffffffffffffffffffffffffffffffffffffffff166108fc829081150290604051600060405180830381858888f193505050501580156103cc573d6000803e3d6000fd5b5050565b60606003805480602002602001604051908101604052809291908181526020016000905b8282101561049057838290600052602060002090600302016040518060600160405290816000820160009054906101000a900473ffffffffffffffffffffffffffffffffffffffff1673ffffffffffffffffffffffffffffffffffffffff1673ffffffffffffffffffffffffffffffffffffffff16815260200160018201548152602001600282015481525050815260200190600101906103f4565b50505050905090565b60056020528060005260406000206000915090505481565b6000600454905090565b60045481565b600381815481106104d157600080fd5b90600052602060002090600302016000915090508060000160009054906101000a900473ffffffffffffffffffffffffffffffffffffffff16908060010154908060020154905083565b6000600560008373ffffffffffffffffffffffffffffffffffffffff1673ffffffffffffffffffffffffffffffffffffffff168152602001908152602001600020549050919050565b600034116105a7576040517f08c379a000000000000000000000000000000000000000000000000000000000815260040161059e90610ed3565b60405180910390fd5b34600560003373ffffffffffffffffffffffffffffffffffffffff1673ffffffffffffffffffffffffffffffffffffffff16815260200190815260200160002060008282546105f69190610f22565b92505081905550346004600082825461060f9190610f22565b925050819055506002600081548092919061062990610f56565b9190505550600360405180606001604052803373ffffffffffffffffffffffffffffffffffffffff16815260200134815260200142815250908060018154018082558091505060019003906000526020600020906003020160009091909190915060008201518160000160006101000a81548173ffffffffffffffffffffffffffffffffffffffff021916908373ffffffffffffffffffffffffffffffffffffffff16021790555060208201518160010155604082015181600201555050600160009054906101000a900473ffffffffffffffffffffffffffffffffffffffff1673ffffffffffffffffffffffffffffffffffffffff16635824ebae33600560003373ffffffffffffffffffffffffffffffffffffffff1673ffffffffffffffffffffffffffffffffffffffff168152602001908152602001600020546040518363ffffffff1660e01b8152600401610783929190610f9e565b600060405180830381600087803b15801561079d57600080fd5b505af11580156107b1573d6000803e3d6000fd5b50505050600060036002546107c69190610ff6565b036108515760006064603c476107dc9190611027565b6107e69190611069565b905060008054906101000a900473ffffffffffffffffffffffffffffffffffffffff1673ffffffffffffffffffffffffffffffffffffffff166108fc829081150290604051600060405180830381858888f1935050505015801561084e573d6000803e3d6000fd5b50505b565b600080600160009054906101000a900473ffffffffffffffffffffffffffffffffffffffff1673ffffffffffffffffffffffffffffffffffffffff16639781b72933856040518363ffffffff1660e01b81526004016108b39291906110a9565b6040805180830381865afa1580156108cf573d6000803e3d6000fd5b505050506040513d601f19601f820116820180604052508101906108f3919061111f565b9150915081610937576040517f08c379a000000000000000000000000000000000000000000000000000000000815260040161092e906111d1565b60405180910390fd5b6000811161097a576040517f08c379a00000000000000000000000000000000000000000000000000000000081526004016109719061123d565b60405180910390fd5b600160009054906101000a900473ffffffffffffffffffffffffffffffffffffffff1673ffffffffffffffffffffffffffffffffffffffff16634e887d7433856040518363ffffffff1660e01b81526004016109d79291906110a9565b600060405180830381600087803b1580156109f157600080fd5b505af1158015610a05573d6000803e3d6000fd5b505050503373ffffffffffffffffffffffffffffffffffffffff166108fc829081150290604051600060405180830381858888f19350505050158015610a4f573d6000803e3d6000fd5b50505050565b60025481565b6000819050919050565b610a6e81610a5b565b82525050565b6000602082019050610a896000830184610a65565b92915050565b600080fd5b610a9d81610a5b565b8114610aa857600080fd5b50565b600081359050610aba81610a94565b92915050565b600060208284031215610ad657610ad5610a8f565b5b6000610ae484828501610aab565b91505092915050565b600081519050919050565b600082825260208201905092915050565b6000819050602082019050919050565b600073ffffffffffffffffffffffffffffffffffffffff82169050919050565b6000610b4482610b19565b9050919050565b610b5481610b39565b82525050565b610b6381610a5b565b82525050565b606082016000820151610b7f6000850182610b4b565b506020820151610b926020850182610b5a565b506040820151610ba56040850182610b5a565b50505050565b6000610bb78383610b69565b60608301905092915050565b6000602082019050919050565b6000610bdb82610aed565b610be58185610af8565b9350610bf083610b09565b8060005b83811015610c21578151610c088882610bab565b9750610c1383610bc3565b925050600181019050610bf4565b5085935050505092915050565b60006020820190508181036000830152610c488184610bd0565b905092915050565b610c5981610b39565b8114610c6457600080fd5b50565b600081359050610c7681610c50565b92915050565b600060208284031215610c9257610c91610a8f565b5b6000610ca084828501610c67565b91505092915050565b610cb281610b39565b82525050565b6000606082019050610ccd6000830186610ca9565b610cda6020830185610a65565b610ce76040830184610a65565b949350505050565b6000819050919050565b610d0281610cef565b8114610d0d57600080fd5b50565b600081359050610d1f81610cf9565b92915050565b600060208284031215610d3b57610d3a610a8f565b5b6000610d4984828501610d10565b91505092915050565b600082825260208201905092915050565b7f4f6e6c792061646d696e2063616e2063616c6c20746869732066756e6374696f60008201527f6e00000000000000000000000000000000000000000000000000000000000000602082015250565b6000610dbf602183610d52565b9150610dca82610d63565b604082019050919050565b60006020820190508181036000830152610dee81610db2565b9050919050565b7f496e73756666696369656e7420636f6e74726163742062616c616e6365000000600082015250565b6000610e2b601d83610d52565b9150610e3682610df5565b602082019050919050565b60006020820190508181036000830152610e5a81610e1e565b9050919050565b7f416d6f756e742073686f756c642062652067726561746572207468616e207a6560008201527f726f000000000000000000000000000000000000000000000000000000000000602082015250565b6000610ebd602283610d52565b9150610ec882610e61565b604082019050919050565b60006020820190508181036000830152610eec81610eb0565b9050919050565b7f4e487b7100000000000000000000000000000000000000000000000000000000600052601160045260246000fd5b6000610f2d82610a5b565b9150610f3883610a5b565b9250828201905080821115610f5057610f4f610ef3565b5b92915050565b6000610f6182610a5b565b91507fffffffffffffffffffffffffffffffffffffffffffffffffffffffffffffffff8203610f9357610f92610ef3565b5b600182019050919050565b6000604082019050610fb36000830185610ca9565b610fc06020830184610a65565b9392505050565b7f4e487b7100000000000000000000000000000000000000000000000000000000600052601260045260246000fd5b600061100182610a5b565b915061100c83610a5b565b92508261101c5761101b610fc7565b5b828206905092915050565b600061103282610a5b565b915061103d83610a5b565b925082820261104b81610a5b565b9150828204841483151761106257611061610ef3565b5b5092915050565b600061107482610a5b565b915061107f83610a5b565b92508261108f5761108e610fc7565b5b828204905092915050565b6110a381610cef565b82525050565b60006040820190506110be6000830185610ca9565b6110cb602083018461109a565b9392505050565b60008115159050919050565b6110e7816110d2565b81146110f257600080fd5b50565b600081519050611104816110de565b92915050565b60008151905061111981610a94565b92915050565b6000806040838503121561113657611135610a8f565b5b6000611144858286016110f5565b92505060206111558582860161110a565b9150509250929050565b7f436f75706f6e206e6f742076616c6964206f7220616c7265616479207769746860008201527f647261776e000000000000000000000000000000000000000000000000000000602082015250565b60006111bb602583610d52565b91506111c68261115f565b604082019050919050565b600060208201905081810360008301526111ea816111ae565b9050919050565b7f436f75706f6e20686173206e6f2076616c756500000000000000000000000000600082015250565b6000611227601383610d52565b9150611232826111f1565b602082019050919050565b600060208201905081810360008301526112568161121a565b905091905056fea2646970667358221220877409f7e7a99234153a90b7a6e8addf5d72c84ac0bf239a185e70ca9682b0b564736f6c63430008130033",
  "linkReferences": {},
  "deployedLinkReferences": {}
}